{
  "_format": "hh-sol-artifact-1",
  "contractName": "AIAgentFactory",
  "sourceName": "contracts/core/AIAgentFactory.sol",
  "abi": [
    {
      "inputs": [
        {
          "internalType": "address",
          "name": "_kamikazeToken",
          "type": "address"
        },
        {
          "internalType": "address",
          "name": "_agentNFT",
          "type": "address"
        }
      ],
      "stateMutability": "nonpayable",
      "type": "constructor"
    },
    {
      "anonymous": false,
      "inputs": [
        {
          "indexed": true,
          "internalType": "address",
          "name": "owner",
          "type": "address"
        },
        {
          "indexed": true,
          "internalType": "uint256",
          "name": "tokenId",
          "type": "uint256"
        },
        {
          "indexed": false,
          "internalType": "string",
          "name": "agentType",
          "type": "string"
        }
      ],
      "name": "AgentCreated",
      "type": "event"
    },
    {
      "anonymous": false,
      "inputs": [
        {
          "indexed": true,
          "internalType": "uint256",
          "name": "tokenId",
          "type": "uint256"
        },
        {
          "indexed": false,
          "internalType": "uint256",
          "name": "amount",
          "type": "uint256"
        }
      ],
      "name": "AgentStaked",
      "type": "event"
    },
    {
      "anonymous": false,
      "inputs": [
        {
          "indexed": true,
          "internalType": "uint256",
          "name": "tokenId",
          "type": "uint256"
        },
        {
          "indexed": false,
          "internalType": "uint256",
          "name": "reward",
          "type": "uint256"
        }
      ],
      "name": "AgentTaskCompleted",
      "type": "event"
    },
    {
      "anonymous": false,
      "inputs": [
        {
          "indexed": false,
          "internalType": "string",
          "name": "templateId",
          "type": "string"
        },
        {
          "indexed": false,
          "internalType": "string",
          "name": "name",
          "type": "string"
        },
        {
          "indexed": false,
          "internalType": "uint256",
          "name": "cost",
          "type": "uint256"
        }
      ],
      "name": "AgentTemplateAdded",
      "type": "event"
    },
    {
      "anonymous": false,
      "inputs": [
        {
          "indexed": true,
          "internalType": "address",
          "name": "previousOwner",
          "type": "address"
        },
        {
          "indexed": true,
          "internalType": "address",
          "name": "newOwner",
          "type": "address"
        }
      ],
      "name": "OwnershipTransferred",
      "type": "event"
    },
    {
      "inputs": [
        {
          "internalType": "uint256",
          "name": "_tokenId",
          "type": "uint256"
        }
      ],
      "name": "activateAgent",
      "outputs": [],
      "stateMutability": "nonpayable",
      "type": "function"
    },
    {
      "inputs": [],
      "name": "agentNFT",
      "outputs": [
        {
          "internalType": "contract IBasicNFT",
          "name": "",
          "type": "address"
        }
      ],
      "stateMutability": "view",
      "type": "function"
    },
    {
      "inputs": [
        {
          "internalType": "string",
          "name": "",
          "type": "string"
        }
      ],
      "name": "agentTemplates",
      "outputs": [
        {
          "internalType": "string",
          "name": "name",
          "type": "string"
        },
        {
          "internalType": "string",
          "name": "category",
          "type": "string"
        },
        {
          "internalType": "uint256",
          "name": "creationCost",
          "type": "uint256"
        },
        {
          "internalType": "uint256",
          "name": "stakingRequirement",
          "type": "uint256"
        },
        {
          "internalType": "bool",
          "name": "isActive",
          "type": "bool"
        }
      ],
      "stateMutability": "view",
      "type": "function"
    },
    {
      "inputs": [
        {
          "internalType": "uint256",
          "name": "",
          "type": "uint256"
        }
      ],
      "name": "availableTemplates",
      "outputs": [
        {
          "internalType": "string",
          "name": "",
          "type": "string"
        }
      ],
      "stateMutability": "view",
      "type": "function"
    },
    {
      "inputs": [],
      "name": "baseCost",
      "outputs": [
        {
          "internalType": "uint256",
          "name": "",
          "type": "uint256"
        }
      ],
      "stateMutability": "view",
      "type": "function"
    },
    {
      "inputs": [
        {
          "internalType": "uint256",
          "name": "_tokenId",
          "type": "uint256"
        },
        {
          "internalType": "uint256",
          "name": "_reward",
          "type": "uint256"
        }
      ],
      "name": "completeTask",
      "outputs": [],
      "stateMutability": "nonpayable",
      "type": "function"
    },
    {
      "inputs": [
        {
          "internalType": "string",
          "name": "_templateId",
          "type": "string"
        },
        {
          "internalType": "string",
          "name": "_apiEndpoint",
          "type": "string"
        },
        {
          "internalType": "uint256",
          "name": "_initialStake",
          "type": "uint256"
        }
      ],
      "name": "createAgent",
      "outputs": [
        {
          "internalType": "uint256",
          "name": "",
          "type": "uint256"
        }
      ],
      "stateMutability": "nonpayable",
      "type": "function"
    },
    {
      "inputs": [
        {
          "internalType": "uint256",
          "name": "",
          "type": "uint256"
        }
      ],
      "name": "createdAgents",
      "outputs": [
        {
          "internalType": "uint256",
          "name": "tokenId",
          "type": "uint256"
        },
        {
          "internalType": "address",
          "name": "owner",
          "type": "address"
        },
        {
          "internalType": "string",
          "name": "agentType",
          "type": "string"
        },
        {
          "internalType": "string",
          "name": "apiEndpoint",
          "type": "string"
        },
        {
          "internalType": "uint256",
          "name": "stakedAmount",
          "type": "uint256"
        },
        {
          "internalType": "uint256",
          "name": "creationTime",
          "type": "uint256"
        },
        {
          "internalType": "bool",
          "name": "isActive",
          "type": "bool"
        },
        {
          "internalType": "uint256",
          "name": "tasksCompleted",
          "type": "uint256"
        },
        {
          "internalType": "uint256",
          "name": "totalEarned",
          "type": "uint256"
        }
      ],
      "stateMutability": "view",
      "type": "function"
    },
    {
      "inputs": [
        {
          "internalType": "uint256",
          "name": "_tokenId",
          "type": "uint256"
        }
      ],
      "name": "deactivateAgent",
      "outputs": [],
      "stateMutability": "nonpayable",
      "type": "function"
    },
    {
      "inputs": [
        {
          "internalType": "uint256",
          "name": "_tokenId",
          "type": "uint256"
        }
      ],
      "name": "getAgentDetails",
      "outputs": [
        {
          "components": [
            {
              "internalType": "uint256",
              "name": "tokenId",
              "type": "uint256"
            },
            {
              "internalType": "address",
              "name": "owner",
              "type": "address"
            },
            {
              "internalType": "string",
              "name": "agentType",
              "type": "string"
            },
            {
              "internalType": "string",
              "name": "apiEndpoint",
              "type": "string"
            },
            {
              "internalType": "uint256",
              "name": "stakedAmount",
              "type": "uint256"
            },
            {
              "internalType": "uint256",
              "name": "creationTime",
              "type": "uint256"
            },
            {
              "internalType": "bool",
              "name": "isActive",
              "type": "bool"
            },
            {
              "internalType": "uint256",
              "name": "tasksCompleted",
              "type": "uint256"
            },
            {
              "internalType": "uint256",
              "name": "totalEarned",
              "type": "uint256"
            }
          ],
          "internalType": "struct AIAgentFactory.CreatedAgent",
          "name": "",
          "type": "tuple"
        }
      ],
      "stateMutability": "view",
      "type": "function"
    },
    {
      "inputs": [
        {
          "internalType": "string",
          "name": "_templateId",
          "type": "string"
        }
      ],
      "name": "getAgentTemplate",
      "outputs": [
        {
          "components": [
            {
              "internalType": "string",
              "name": "name",
              "type": "string"
            },
            {
              "internalType": "string",
              "name": "category",
              "type": "string"
            },
            {
              "internalType": "uint256",
              "name": "creationCost",
              "type": "uint256"
            },
            {
              "internalType": "uint256",
              "name": "stakingRequirement",
              "type": "uint256"
            },
            {
              "internalType": "bool",
              "name": "isActive",
              "type": "bool"
            }
          ],
          "internalType": "struct AIAgentFactory.AgentTemplate",
          "name": "",
          "type": "tuple"
        }
      ],
      "stateMutability": "view",
      "type": "function"
    },
    {
      "inputs": [],
      "name": "getAllTemplates",
      "outputs": [
        {
          "internalType": "string[]",
          "name": "",
          "type": "string[]"
        }
      ],
      "stateMutability": "view",
      "type": "function"
    },
    {
      "inputs": [
        {
          "internalType": "address",
          "name": "_user",
          "type": "address"
        }
      ],
      "name": "getUserAgents",
      "outputs": [
        {
          "internalType": "uint256[]",
          "name": "",
          "type": "uint256[]"
        }
      ],
      "stateMutability": "view",
      "type": "function"
    },
    {
      "inputs": [],
      "name": "kamikazeToken",
      "outputs": [
        {
          "internalType": "contract IERC20",
          "name": "",
          "type": "address"
        }
      ],
      "stateMutability": "view",
      "type": "function"
    },
    {
      "inputs": [],
      "name": "owner",
      "outputs": [
        {
          "internalType": "address",
          "name": "",
          "type": "address"
        }
      ],
      "stateMutability": "view",
      "type": "function"
    },
    {
      "inputs": [],
      "name": "renounceOwnership",
      "outputs": [],
      "stateMutability": "nonpayable",
      "type": "function"
    },
    {
      "inputs": [
        {
          "internalType": "uint256",
          "name": "_tokenId",
          "type": "uint256"
        },
        {
          "internalType": "uint256",
          "name": "_amount",
          "type": "uint256"
        }
      ],
      "name": "stakeToAgent",
      "outputs": [],
      "stateMutability": "nonpayable",
      "type": "function"
    },
    {
      "inputs": [],
      "name": "totalAgentsCreated",
      "outputs": [
        {
          "internalType": "uint256",
          "name": "",
          "type": "uint256"
        }
      ],
      "stateMutability": "view",
      "type": "function"
    },
    {
      "inputs": [
        {
          "internalType": "address",
          "name": "newOwner",
          "type": "address"
        }
      ],
      "name": "transferOwnership",
      "outputs": [],
      "stateMutability": "nonpayable",
      "type": "function"
    },
    {
      "inputs": [
        {
          "internalType": "uint256",
          "name": "_newCost",
          "type": "uint256"
        }
      ],
      "name": "updateBaseCost",
      "outputs": [],
      "stateMutability": "nonpayable",
      "type": "function"
    },
    {
      "inputs": [
        {
          "internalType": "string",
          "name": "_templateId",
          "type": "string"
        },
        {
          "internalType": "uint256",
          "name": "_cost",
          "type": "uint256"
        },
        {
          "internalType": "uint256",
          "name": "_stakingReq",
          "type": "uint256"
        },
        {
          "internalType": "bool",
          "name": "_isActive",
          "type": "bool"
        }
      ],
      "name": "updateTemplate",
      "outputs": [],
      "stateMutability": "nonpayable",
      "type": "function"
    },
    {
      "inputs": [
        {
          "internalType": "address",
          "name": "",
          "type": "address"
        },
        {
          "internalType": "uint256",
          "name": "",
          "type": "uint256"
        }
      ],
      "name": "userAgents",
      "outputs": [
        {
          "internalType": "uint256",
          "name": "",
          "type": "uint256"
        }
      ],
      "stateMutability": "view",
      "type": "function"
    },
    {
      "inputs": [
        {
          "internalType": "uint256",
          "name": "_tokenId",
          "type": "uint256"
        },
        {
          "internalType": "uint256",
          "name": "_amount",
          "type": "uint256"
        }
      ],
      "name": "withdrawStake",
      "outputs": [],
      "stateMutability": "nonpayable",
      "type": "function"
    }
  ],
  "bytecode": "0x60c0604052683635c9adc5dea000006007553480156200001e57600080fd5b5060405162002c6538038062002c6583398101604081905262000041916200088a565b6001600055620000513362000076565b6001600160a01b03808316608052811660a0526200006e620000c8565b505062000b2e565b600180546001600160a01b038381166001600160a01b0319831681179093556040519116919082907f8be0079c531659141344cd1fd0a4f28419497f9722a3daafe3b4186f6b6457e090600090a35050565b620001546040518060400160405280600e81526020016d31b7b73a32b73a16bbb934ba32b960911b8152506040518060400160405280600e81526020016d21b7b73a32b73a102bb934ba32b960911b8152506040518060400160405280600781526020016677726974696e6760c81b81525060075460026007546200014e9190620008c2565b62000749565b620001e96040518060400160405280600c81526020016b736f6369616c2d6d6564696160a01b8152506040518060400160405280601481526020017f536f6369616c204d65646961204d616e61676572000000000000000000000000815250604051806040016040528060098152602001686d61726b6574696e6760b81b81525060075460026007546200014e9190620008c2565b6200026d6040518060400160405280600a81526020016931b7b83cbbb934ba32b960b11b8152506040518060400160405280600a81526020016921b7b83cbbb934ba32b960b11b8152506040518060400160405280600781526020016677726974696e6760c81b8152506007546002620002649190620008e5565b60075462000749565b620003026040518060400160405280600d81526020016c31b7b23296b932bb34b2bbb2b960991b8152506040518060400160405280600d81526020016c21b7b232902932bb34b2bbb2b960991b8152506040518060400160405280600b81526020016a19195d995b1bdc1b595b9d60aa1b8152506007546003620002f29190620008e5565b6007546200014e906002620008e5565b620003836040518060400160405280600a815260200169313ab396b334b73232b960b11b8152506040518060400160405280600c81526020016b213ab3902232ba32b1ba37b960a11b8152506040518060400160405280600b81526020016a19195d995b1bdc1b595b9d60aa1b8152506007546002620002649190620008e5565b620004056040518060400160405280600a81526020016930b83496ba32b9ba32b960b11b8152506040518060400160405280600a81526020016920a824902a32b9ba32b960b11b8152506040518060400160405280600b81526020016a19195d995b1bdc1b595b9d60aa1b81525060075460026007546200014e9190620008c2565b620004876040518060400160405280600d81526020016c3230ba3096b0b730b63cbd32b960991b8152506040518060400160405280600c81526020016b11185d1848105b985b1e5cdd60a21b81525060405180604001604052806009815260200168616e616c797469637360b81b8152506007546002620002649190620008e5565b620005136040518060400160405280601081526020016f3932b837b93a16b3b2b732b930ba37b960811b8152506040518060400160405280601081526020016f2932b837b93a1023b2b732b930ba37b960811b81525060405180604001604052806009815260200168616e616c797469637360b81b81525060075460026007546200014e9190620008c2565b620005966040518060400160405280600d81526020016c3a3932b73216b9b837ba3a32b960991b8152506040518060400160405280600d81526020016c151c995b9908105b985b1e5cdd609a1b81525060405180604001604052806009815260200168616e616c797469637360b81b8152506007546003620002f29190620008e5565b620006246040518060400160405280600781526020016618da185d189bdd60ca1b8152506040518060400160405280601481526020017f437573746f6d657220537570706f727420426f74000000000000000000000000815250604051806040016040528060078152602001661cdd5c1c1bdc9d60ca1b81525060075460026007546200014e9190620008c2565b620006b56040518060400160405280600a8152602001693a3930b739b630ba37b960b11b8152506040518060400160405280601381526020017f4c616e6775616765205472616e736c61746f7200000000000000000000000000815250604051806040016040528060078152602001661cdd5c1c1bdc9d60ca1b81525060075460026007546200014e9190620008c2565b620007476040518060400160405280600981526020016839b1b432b23ab632b960b91b8152506040518060400160405280601181526020017026b2b2ba34b7339029b1b432b23ab632b960791b815250604051806040016040528060078152602001661cdd5c1c1bdc9d60ca1b8152506002600754620007369190620008c2565b60046007546200014e9190620008c2565b565b6040518060a001604052808581526020018481526020018381526020018281526020016001151581525060028660405162000785919062000937565b90815260405190819003602001902081518190620007a49082620009fa565b5060208201516001820190620007bb9082620009fa565b5060408201516002820155606082015160038201556080909101516004909101805460ff1916911515919091179055600580546001810182556000919091527f036b6384b5eca791c62761152d0c79bb0604c104a5fb6f4eb0703f3154bb3db001620008288682620009fa565b507f777b9055df0f06645afd5b9db01aadf97bb08fe2b32dfb941185669e1952efd48585846040516200085e9392919062000af4565b60405180910390a15050505050565b80516001600160a01b03811681146200088557600080fd5b919050565b600080604083850312156200089e57600080fd5b620008a9836200086d565b9150620008b9602084016200086d565b90509250929050565b600082620008e057634e487b7160e01b600052601260045260246000fd5b500490565b80820281158282048414176200090b57634e487b7160e01b600052601160045260246000fd5b92915050565b60005b838110156200092e57818101518382015260200162000914565b50506000910152565b600082516200094b81846020870162000911565b9190910192915050565b634e487b7160e01b600052604160045260246000fd5b600181811c908216806200098057607f821691505b602082108103620009a157634e487b7160e01b600052602260045260246000fd5b50919050565b601f821115620009f557600081815260208120601f850160051c81016020861015620009d05750805b601f850160051c820191505b81811015620009f157828155600101620009dc565b5050505b505050565b81516001600160401b0381111562000a165762000a1662000955565b62000a2e8162000a2784546200096b565b84620009a7565b602080601f83116001811462000a66576000841562000a4d5750858301515b600019600386901b1c1916600185901b178555620009f1565b600085815260208120601f198616915b8281101562000a975788860151825594840194600190910190840162000a76565b508582101562000ab65787850151600019600388901b60f8161c191681555b5050505050600190811b01905550565b6000815180845262000ae081602086016020860162000911565b601f01601f19169290920160200192915050565b60608152600062000b09606083018662000ac6565b828103602084015262000b1d818662000ac6565b915050826040830152949350505050565b60805160a0516120e762000b7e600039600081816101ee015261091401526000818161034f01528181610460015281816107a70152818161088201528181610fe5015261174901526120e76000f3fe608060405234801561001057600080fd5b506004361061014d5760003560e01c806374a622aa116100c3578063d11257d01161007c578063d11257d014610304578063d8b7b99f14610317578063d93597f014610337578063dc3b3d771461034a578063f1fdf46914610371578063f2fde38b1461038457600080fd5b806374a622aa1461027a57806386f8d9501461028d5780638da5cb5b146102ad5780638e46a300146102be57806393822557146102d3578063ac629034146102dc57600080fd5b80633d46519d116101155780633d46519d146101c95780633fd773e9146101e957806351ca9ff914610228578063598a8bc21461023b5780636598d7721461025f578063715018a61461027257600080fd5b8063108c8ae41461015257806311ba6b4a146101675780631325f3b51461017a57806315ebd1fc146101a05780631aa20631146101a9575b600080fd5b610165610160366004611947565b610397565b005b610165610175366004611969565b61050f565b61018d610188366004611a25565b610563565b6040519081526020015b60405180910390f35b61018d60065481565b6101bc6101b7366004611a92565b610b48565b6040516101979190611b1f565b6101dc6101d7366004611ba1565b610cf3565b6040516101979190611bbc565b6102107f000000000000000000000000000000000000000000000000000000000000000081565b6040516001600160a01b039091168152602001610197565b61018d610236366004611c00565b610d5f565b61024e610249366004611a92565b610d90565b604051610197959493929190611c2a565b61016561026d366004611947565b610ede565b6101656110c4565b610165610288366004611969565b6110d8565b6102a061029b366004611969565b6110e5565b6040516101979190611c6f565b6001546001600160a01b0316610210565b6102c6611191565b6040516101979190611c82565b61018d60075481565b6102ef6102ea366004611969565b61126a565b60405161019799989796959493929190611ce4565b610165610312366004611969565b6113cf565b61032a610325366004611969565b611426565b6040516101979190611d51565b610165610345366004611e0b565b61161d565b6102107f000000000000000000000000000000000000000000000000000000000000000081565b61016561037f366004611947565b611670565b610165610392366004611ba1565b6117c9565b61039f611842565b60008281526003602052604090206006015460ff166103f85760405162461bcd60e51b815260206004820152601060248201526f4167656e74206e6f742061637469766560801b60448201526064015b60405180910390fd5b6000828152600360205260408120600781018054919261041783611e84565b9190505550818160080160008282546104309190611e9d565b9091555050600181015460405163a9059cbb60e01b81526001600160a01b039182166004820152602481018490527f00000000000000000000000000000000000000000000000000000000000000009091169063a9059cbb906044016020604051808303816000875af11580156104ab573d6000803e3d6000fd5b505050506040513d601f19601f820116820180604052508101906104cf9190611eb6565b50827fa82b21ea4cc9cde5ba1307fc50785a35c779391231d60b0ea2f43d93989c0cdf8360405161050291815260200190565b60405180910390a2505050565b6000818152600360205260409020600101546001600160a01b031633146105485760405162461bcd60e51b81526004016103ef90611ed3565b6000908152600360205260409020600601805460ff19169055565b600061056d61189c565b600060028560405161057f9190611efc565b90815260200160405180910390206040518060a00160405290816000820180546105a890611f18565b80601f01602080910402602001604051908101604052809291908181526020018280546105d490611f18565b80156106215780601f106105f657610100808354040283529160200191610621565b820191906000526020600020905b81548152906001019060200180831161060457829003601f168201915b5050505050815260200160018201805461063a90611f18565b80601f016020809104026020016040519081016040528092919081815260200182805461066690611f18565b80156106b35780601f10610688576101008083540402835291602001916106b3565b820191906000526020600020905b81548152906001019060200180831161069657829003601f168201915b5050509183525050600282015460208201526003820154604082015260049091015460ff161515606090910152608081015190915061072a5760405162461bcd60e51b815260206004820152601360248201527254656d706c617465206e6f742061637469766560681b60448201526064016103ef565b80606001518310156107735760405162461bcd60e51b8152602060048201526012602482015271496e73756666696369656e74207374616b6560701b60448201526064016103ef565b60008382604001516107859190611e9d565b6040516370a0823160e01b815233600482015290915081906001600160a01b037f000000000000000000000000000000000000000000000000000000000000000016906370a0823190602401602060405180830381865afa1580156107ee573d6000803e3d6000fd5b505050506040513d601f19601f820116820180604052508101906108129190611f52565b10156108605760405162461bcd60e51b815260206004820152601d60248201527f496e73756666696369656e74204b414d494b415a452062616c616e636500000060448201526064016103ef565b6040516323b872dd60e01b8152336004820152306024820152604481018290527f00000000000000000000000000000000000000000000000000000000000000006001600160a01b0316906323b872dd906064016020604051808303816000875af11580156108d3573d6000803e3d6000fd5b505050506040513d601f19601f820116820180604052508101906108f79190611eb6565b50815160405163b135dead60e01b81526000916001600160a01b037f0000000000000000000000000000000000000000000000000000000000000000169163b135dead9161094a91339190600401611f6b565b6020604051808303816000875af1158015610969573d6000803e3d6000fd5b505050506040513d601f19601f8201168201806040525081019061098d9190611f52565b60408051610120810182528281523360208083019182528284018c8152606084018c9052608084018b90524260a0850152600160c08501819052600060e08601819052610100860181905287815260039093529490912083518155915193820180546001600160a01b0319166001600160a01b03909516949094179093559151929350916002820190610a209082611fde565b5060608201516003820190610a359082611fde565b50608082015160048281019190915560a0830151600583015560c08301516006808401805460ff19169215159290921790915560e0840151600784015561010090930151600890920191909155336000908152602091825260408120805460018101825590825291812090910183905581549190610ab283611e84565b919050555080336001600160a01b03167f29d35a46f0bbb48a0f33a29f1cb7a33defbcfbb654a75c1ebc027d06a2870ff489604051610af19190611c6f565b60405180910390a3807f0531917574b0efa1e3bb5a9cb6d149df86cb93bea43e45870f850d86200ee56a86604051610b2b91815260200190565b60405180910390a292505050610b416001600055565b9392505050565b610b7c6040518060a00160405280606081526020016060815260200160008152602001600081526020016000151581525090565b600282604051610b8c9190611efc565b90815260200160405180910390206040518060a0016040529081600082018054610bb590611f18565b80601f0160208091040260200160405190810160405280929190818152602001828054610be190611f18565b8015610c2e5780601f10610c0357610100808354040283529160200191610c2e565b820191906000526020600020905b815481529060010190602001808311610c1157829003601f168201915b50505050508152602001600182018054610c4790611f18565b80601f0160208091040260200160405190810160405280929190818152602001828054610c7390611f18565b8015610cc05780601f10610c9557610100808354040283529160200191610cc0565b820191906000526020600020905b815481529060010190602001808311610ca357829003601f168201915b5050509183525050600282015460208201526003820154604082015260049091015460ff16151560609091015292915050565b6001600160a01b038116600090815260046020908152604091829020805483518184028101840190945280845260609392830182828015610d5357602002820191906000526020600020905b815481526020019060010190808311610d3f575b50505050509050919050565b60046020528160005260406000208181548110610d7b57600080fd5b90600052602060002001600091509150505481565b8051602081830181018051600282529282019190930120915280548190610db690611f18565b80601f0160208091040260200160405190810160405280929190818152602001828054610de290611f18565b8015610e2f5780601f10610e0457610100808354040283529160200191610e2f565b820191906000526020600020905b815481529060010190602001808311610e1257829003601f168201915b505050505090806001018054610e4490611f18565b80601f0160208091040260200160405190810160405280929190818152602001828054610e7090611f18565b8015610ebd5780601f10610e9257610100808354040283529160200191610ebd565b820191906000526020600020905b815481529060010190602001808311610ea057829003601f168201915b50505050600283015460038401546004909401549293909290915060ff1685565b610ee661189c565b6000828152600360205260409020600101546001600160a01b03163314610f1f5760405162461bcd60e51b81526004016103ef90611ed3565b60008281526003602052604090206006015460ff16610f735760405162461bcd60e51b815260206004820152601060248201526f4167656e74206e6f742061637469766560801b60448201526064016103ef565b60008111610fc35760405162461bcd60e51b815260206004820152601d60248201527f416d6f756e74206d7573742062652067726561746572207468616e203000000060448201526064016103ef565b6040516323b872dd60e01b8152336004820152306024820152604481018290527f00000000000000000000000000000000000000000000000000000000000000006001600160a01b0316906323b872dd906064016020604051808303816000875af1158015611036573d6000803e3d6000fd5b505050506040513d601f19601f8201168201806040525081019061105a9190611eb6565b506000828152600360205260408120600401805483929061107c908490611e9d565b909155505060405181815282907f0531917574b0efa1e3bb5a9cb6d149df86cb93bea43e45870f850d86200ee56a9060200160405180910390a26110c06001600055565b5050565b6110cc611842565b6110d660006118f5565b565b6110e0611842565b600755565b600581815481106110f557600080fd5b90600052602060002001600091509050805461111090611f18565b80601f016020809104026020016040519081016040528092919081815260200182805461113c90611f18565b80156111895780601f1061115e57610100808354040283529160200191611189565b820191906000526020600020905b81548152906001019060200180831161116c57829003601f168201915b505050505081565b60606005805480602002602001604051908101604052809291908181526020016000905b828210156112615783829060005260206000200180546111d490611f18565b80601f016020809104026020016040519081016040528092919081815260200182805461120090611f18565b801561124d5780601f106112225761010080835404028352916020019161124d565b820191906000526020600020905b81548152906001019060200180831161123057829003601f168201915b5050505050815260200190600101906111b5565b50505050905090565b60036020526000908152604090208054600182015460028301805492936001600160a01b039092169261129c90611f18565b80601f01602080910402602001604051908101604052809291908181526020018280546112c890611f18565b80156113155780601f106112ea57610100808354040283529160200191611315565b820191906000526020600020905b8154815290600101906020018083116112f857829003601f168201915b50505050509080600301805461132a90611f18565b80601f016020809104026020016040519081016040528092919081815260200182805461135690611f18565b80156113a35780601f10611378576101008083540402835291602001916113a3565b820191906000526020600020905b81548152906001019060200180831161138657829003601f168201915b50505060048401546005850154600686015460078701546008909701549596929591945060ff16925089565b6000818152600360205260409020600101546001600160a01b031633146114085760405162461bcd60e51b81526004016103ef90611ed3565b6000908152600360205260409020600601805460ff19166001179055565b6114806040518061012001604052806000815260200160006001600160a01b031681526020016060815260200160608152602001600081526020016000815260200160001515815260200160008152602001600081525090565b6000828152600360209081526040918290208251610120810184528154815260018201546001600160a01b03169281019290925260028101805492939192918401916114cb90611f18565b80601f01602080910402602001604051908101604052809291908181526020018280546114f790611f18565b80156115445780601f1061151957610100808354040283529160200191611544565b820191906000526020600020905b81548152906001019060200180831161152757829003601f168201915b5050505050815260200160038201805461155d90611f18565b80601f016020809104026020016040519081016040528092919081815260200182805461158990611f18565b80156115d65780601f106115ab576101008083540402835291602001916115d6565b820191906000526020600020905b8154815290600101906020018083116115b957829003601f168201915b50505091835250506004820154602082015260058201546040820152600682015460ff16151560608201526007820154608082015260089091015460a09091015292915050565b611625611842565b60006002856040516116379190611efc565b90815260405190819003602001902060028101949094555060038301919091556004909101805491151560ff1990921691909117905550565b61167861189c565b6000828152600360205260409020600101546001600160a01b031633146116b15760405162461bcd60e51b81526004016103ef90611ed3565b6000828152600360205260409020600401548111156117075760405162461bcd60e51b8152602060048201526012602482015271496e73756666696369656e74207374616b6560701b60448201526064016103ef565b6000828152600360205260408120600401805483929061172890849061209e565b909155505060405163a9059cbb60e01b8152336004820152602481018290527f00000000000000000000000000000000000000000000000000000000000000006001600160a01b03169063a9059cbb906044016020604051808303816000875af115801561179a573d6000803e3d6000fd5b505050506040513d601f19601f820116820180604052508101906117be9190611eb6565b506110c06001600055565b6117d1611842565b6001600160a01b0381166118365760405162461bcd60e51b815260206004820152602660248201527f4f776e61626c653a206e6577206f776e657220697320746865207a65726f206160448201526564647265737360d01b60648201526084016103ef565b61183f816118f5565b50565b6001546001600160a01b031633146110d65760405162461bcd60e51b815260206004820181905260248201527f4f776e61626c653a2063616c6c6572206973206e6f7420746865206f776e657260448201526064016103ef565b6002600054036118ee5760405162461bcd60e51b815260206004820152601f60248201527f5265656e7472616e637947756172643a207265656e7472616e742063616c6c0060448201526064016103ef565b6002600055565b600180546001600160a01b038381166001600160a01b0319831681179093556040519116919082907f8be0079c531659141344cd1fd0a4f28419497f9722a3daafe3b4186f6b6457e090600090a35050565b6000806040838503121561195a57600080fd5b50508035926020909101359150565b60006020828403121561197b57600080fd5b5035919050565b634e487b7160e01b600052604160045260246000fd5b600082601f8301126119a957600080fd5b813567ffffffffffffffff808211156119c4576119c4611982565b604051601f8301601f19908116603f011681019082821181831017156119ec576119ec611982565b81604052838152866020858801011115611a0557600080fd5b836020870160208301376000602085830101528094505050505092915050565b600080600060608486031215611a3a57600080fd5b833567ffffffffffffffff80821115611a5257600080fd5b611a5e87838801611998565b94506020860135915080821115611a7457600080fd5b50611a8186828701611998565b925050604084013590509250925092565b600060208284031215611aa457600080fd5b813567ffffffffffffffff811115611abb57600080fd5b611ac784828501611998565b949350505050565b60005b83811015611aea578181015183820152602001611ad2565b50506000910152565b60008151808452611b0b816020860160208601611acf565b601f01601f19169290920160200192915050565b602081526000825160a06020840152611b3b60c0840182611af3565b90506020840151601f19848303016040850152611b588282611af3565b91505060408401516060840152606084015160808401526080840151151560a08401528091505092915050565b80356001600160a01b0381168114611b9c57600080fd5b919050565b600060208284031215611bb357600080fd5b610b4182611b85565b6020808252825182820181905260009190848201906040850190845b81811015611bf457835183529284019291840191600101611bd8565b50909695505050505050565b60008060408385031215611c1357600080fd5b611c1c83611b85565b946020939093013593505050565b60a081526000611c3d60a0830188611af3565b8281036020840152611c4f8188611af3565b604084019690965250506060810192909252151560809091015292915050565b602081526000610b416020830184611af3565b6000602080830181845280855180835260408601915060408160051b870101925083870160005b82811015611cd757603f19888603018452611cc5858351611af3565b94509285019290850190600101611ca9565b5092979650505050505050565b8981526001600160a01b038916602082015261012060408201819052600090611d0f8382018b611af3565b90508281036060840152611d23818a611af3565b6080840198909852505060a081019490945291151560c084015260e083015261010090910152949350505050565b602081528151602082015260006020830151611d7860408401826001600160a01b03169052565b506040830151610120806060850152611d95610140850183611af3565b91506060850151601f19858403016080860152611db28382611af3565b925050608085015160a085015260a085015160c085015260c0850151611ddc60e086018215159052565b5060e085015161010085810191909152909401519390920192909252919050565b801515811461183f57600080fd5b60008060008060808587031215611e2157600080fd5b843567ffffffffffffffff811115611e3857600080fd5b611e4487828801611998565b94505060208501359250604085013591506060850135611e6381611dfd565b939692955090935050565b634e487b7160e01b600052601160045260246000fd5b600060018201611e9657611e96611e6e565b5060010190565b80820180821115611eb057611eb0611e6e565b92915050565b600060208284031215611ec857600080fd5b8151610b4181611dfd565b6020808252600f908201526e2737ba1030b3b2b73a1037bbb732b960891b604082015260600190565b60008251611f0e818460208701611acf565b9190910192915050565b600181811c90821680611f2c57607f821691505b602082108103611f4c57634e487b7160e01b600052602260045260246000fd5b50919050565b600060208284031215611f6457600080fd5b5051919050565b6001600160a01b0383168152604060208201819052600090611ac790830184611af3565b601f821115611fd957600081815260208120601f850160051c81016020861015611fb65750805b601f850160051c820191505b81811015611fd557828155600101611fc2565b5050505b505050565b815167ffffffffffffffff811115611ff857611ff8611982565b61200c816120068454611f18565b84611f8f565b602080601f83116001811461204157600084156120295750858301515b600019600386901b1c1916600185901b178555611fd5565b600085815260208120601f198616915b8281101561207057888601518255948401946001909101908401612051565b508582101561208e5787850151600019600388901b60f8161c191681555b5050505050600190811b01905550565b81810381811115611eb057611eb0611e6e56fea264697066735822122088d1cd4ef6a92be44a8bbd392d2f0b033ceaf2bc29463411a5962c7a5579e3a064736f6c63430008130033",
  "linkReferences": {},
  "deployedLinkReferences": {}
}