{
  "_format": "hh-sol-artifact-1",
  "contractName": "BasicToken",
  "sourceName": "contracts/core/BasicToken.sol",
  "abi": [
    {
      "inputs": [],
      "stateMutability": "nonpayable",
      "type": "constructor"
    },
    {
      "anonymous": false,
      "inputs": [
        {
          "indexed": true,
          "internalType": "address",
          "name": "owner",
          "type": "address"
        },
        {
          "indexed": true,
          "internalType": "address",
          "name": "spender",
          "type": "address"
        },
        {
          "indexed": false,
          "internalType": "uint256",
          "name": "value",
          "type": "uint256"
        }
      ],
      "name": "Approval",
      "type": "event"
    },
    {
      "anonymous": false,
      "inputs": [
        {
          "indexed": true,
          "internalType": "address",
          "name": "previousOwner",
          "type": "address"
        },
        {
          "indexed": true,
          "internalType": "address",
          "name": "newOwner",
          "type": "address"
        }
      ],
      "name": "OwnershipTransferred",
      "type": "event"
    },
    {
      "anonymous": false,
      "inputs": [
        {
          "indexed": true,
          "internalType": "address",
          "name": "from",
          "type": "address"
        },
        {
          "indexed": false,
          "internalType": "uint256",
          "name": "amount",
          "type": "uint256"
        },
        {
          "indexed": false,
          "internalType": "string",
          "name": "reason",
          "type": "string"
        }
      ],
      "name": "TokensBurned",
      "type": "event"
    },
    {
      "anonymous": false,
      "inputs": [
        {
          "indexed": true,
          "internalType": "address",
          "name": "from",
          "type": "address"
        },
        {
          "indexed": true,
          "internalType": "address",
          "name": "to",
          "type": "address"
        },
        {
          "indexed": false,
          "internalType": "uint256",
          "name": "value",
          "type": "uint256"
        }
      ],
      "name": "Transfer",
      "type": "event"
    },
    {
      "anonymous": false,
      "inputs": [
        {
          "indexed": true,
          "internalType": "address",
          "name": "from",
          "type": "address"
        },
        {
          "indexed": true,
          "internalType": "address",
          "name": "to",
          "type": "address"
        },
        {
          "indexed": false,
          "internalType": "uint256",
          "name": "amount",
          "type": "uint256"
        },
        {
          "indexed": false,
          "internalType": "uint256",
          "name": "burned",
          "type": "uint256"
        }
      ],
      "name": "TransferWithBurn",
      "type": "event"
    },
    {
      "inputs": [],
      "name": "BASIS_POINTS",
      "outputs": [
        {
          "internalType": "uint256",
          "name": "",
          "type": "uint256"
        }
      ],
      "stateMutability": "view",
      "type": "function"
    },
    {
      "inputs": [],
      "name": "TOTAL_SUPPLY",
      "outputs": [
        {
          "internalType": "uint256",
          "name": "",
          "type": "uint256"
        }
      ],
      "stateMutability": "view",
      "type": "function"
    },
    {
      "inputs": [],
      "name": "TRANSFER_BURN_RATE",
      "outputs": [
        {
          "internalType": "uint256",
          "name": "",
          "type": "uint256"
        }
      ],
      "stateMutability": "view",
      "type": "function"
    },
    {
      "inputs": [
        {
          "internalType": "address",
          "name": "owner",
          "type": "address"
        },
        {
          "internalType": "address",
          "name": "spender",
          "type": "address"
        }
      ],
      "name": "allowance",
      "outputs": [
        {
          "internalType": "uint256",
          "name": "",
          "type": "uint256"
        }
      ],
      "stateMutability": "view",
      "type": "function"
    },
    {
      "inputs": [
        {
          "internalType": "address",
          "name": "spender",
          "type": "address"
        },
        {
          "internalType": "uint256",
          "name": "amount",
          "type": "uint256"
        }
      ],
      "name": "approve",
      "outputs": [
        {
          "internalType": "bool",
          "name": "",
          "type": "bool"
        }
      ],
      "stateMutability": "nonpayable",
      "type": "function"
    },
    {
      "inputs": [
        {
          "internalType": "address",
          "name": "account",
          "type": "address"
        }
      ],
      "name": "balanceOf",
      "outputs": [
        {
          "internalType": "uint256",
          "name": "",
          "type": "uint256"
        }
      ],
      "stateMutability": "view",
      "type": "function"
    },
    {
      "inputs": [
        {
          "internalType": "uint256",
          "name": "amount",
          "type": "uint256"
        }
      ],
      "name": "burn",
      "outputs": [],
      "stateMutability": "nonpayable",
      "type": "function"
    },
    {
      "inputs": [
        {
          "internalType": "address",
          "name": "account",
          "type": "address"
        },
        {
          "internalType": "uint256",
          "name": "amount",
          "type": "uint256"
        }
      ],
      "name": "burnFrom",
      "outputs": [],
      "stateMutability": "nonpayable",
      "type": "function"
    },
    {
      "inputs": [],
      "name": "circulatingSupply",
      "outputs": [
        {
          "internalType": "uint256",
          "name": "",
          "type": "uint256"
        }
      ],
      "stateMutability": "view",
      "type": "function"
    },
    {
      "inputs": [],
      "name": "decimals",
      "outputs": [
        {
          "internalType": "uint8",
          "name": "",
          "type": "uint8"
        }
      ],
      "stateMutability": "view",
      "type": "function"
    },
    {
      "inputs": [
        {
          "internalType": "address",
          "name": "spender",
          "type": "address"
        },
        {
          "internalType": "uint256",
          "name": "subtractedValue",
          "type": "uint256"
        }
      ],
      "name": "decreaseAllowance",
      "outputs": [
        {
          "internalType": "bool",
          "name": "",
          "type": "bool"
        }
      ],
      "stateMutability": "nonpayable",
      "type": "function"
    },
    {
      "inputs": [
        {
          "internalType": "uint256",
          "name": "transferAmount",
          "type": "uint256"
        }
      ],
      "name": "estimateBurnAmount",
      "outputs": [
        {
          "internalType": "uint256",
          "name": "",
          "type": "uint256"
        }
      ],
      "stateMutability": "pure",
      "type": "function"
    },
    {
      "inputs": [],
      "name": "getBurnStats",
      "outputs": [
        {
          "internalType": "uint256",
          "name": "currentSupply",
          "type": "uint256"
        },
        {
          "internalType": "uint256",
          "name": "totalBurnedAmount",
          "type": "uint256"
        },
        {
          "internalType": "uint256",
          "name": "burnPercentage",
          "type": "uint256"
        }
      ],
      "stateMutability": "view",
      "type": "function"
    },
    {
      "inputs": [
        {
          "internalType": "address",
          "name": "spender",
          "type": "address"
        },
        {
          "internalType": "uint256",
          "name": "addedValue",
          "type": "uint256"
        }
      ],
      "name": "increaseAllowance",
      "outputs": [
        {
          "internalType": "bool",
          "name": "",
          "type": "bool"
        }
      ],
      "stateMutability": "nonpayable",
      "type": "function"
    },
    {
      "inputs": [],
      "name": "name",
      "outputs": [
        {
          "internalType": "string",
          "name": "",
          "type": "string"
        }
      ],
      "stateMutability": "view",
      "type": "function"
    },
    {
      "inputs": [],
      "name": "owner",
      "outputs": [
        {
          "internalType": "address",
          "name": "",
          "type": "address"
        }
      ],
      "stateMutability": "view",
      "type": "function"
    },
    {
      "inputs": [],
      "name": "renounceOwnership",
      "outputs": [],
      "stateMutability": "nonpayable",
      "type": "function"
    },
    {
      "inputs": [],
      "name": "symbol",
      "outputs": [
        {
          "internalType": "string",
          "name": "",
          "type": "string"
        }
      ],
      "stateMutability": "view",
      "type": "function"
    },
    {
      "inputs": [],
      "name": "totalBurned",
      "outputs": [
        {
          "internalType": "uint256",
          "name": "",
          "type": "uint256"
        }
      ],
      "stateMutability": "view",
      "type": "function"
    },
    {
      "inputs": [],
      "name": "totalSupply",
      "outputs": [
        {
          "internalType": "uint256",
          "name": "",
          "type": "uint256"
        }
      ],
      "stateMutability": "view",
      "type": "function"
    },
    {
      "inputs": [
        {
          "internalType": "address",
          "name": "to",
          "type": "address"
        },
        {
          "internalType": "uint256",
          "name": "amount",
          "type": "uint256"
        }
      ],
      "name": "transfer",
      "outputs": [
        {
          "internalType": "bool",
          "name": "",
          "type": "bool"
        }
      ],
      "stateMutability": "nonpayable",
      "type": "function"
    },
    {
      "inputs": [
        {
          "internalType": "address",
          "name": "from",
          "type": "address"
        },
        {
          "internalType": "address",
          "name": "to",
          "type": "address"
        },
        {
          "internalType": "uint256",
          "name": "amount",
          "type": "uint256"
        }
      ],
      "name": "transferFrom",
      "outputs": [
        {
          "internalType": "bool",
          "name": "",
          "type": "bool"
        }
      ],
      "stateMutability": "nonpayable",
      "type": "function"
    },
    {
      "inputs": [
        {
          "internalType": "address",
          "name": "newOwner",
          "type": "address"
        }
      ],
      "name": "transferOwnership",
      "outputs": [],
      "stateMutability": "nonpayable",
      "type": "function"
    }
  ],
  "bytecode": "0x60806040523480156200001157600080fd5b506040518060400160405280600d81526020016c25b0b6b4b5b0bd32aa37b5b2b760991b815250604051806040016040528060088152602001674b414d494b415a4560c01b81525081600390816200006a919062000279565b50600462000079828262000279565b5050506200009662000090620000b460201b60201c565b620000b8565b620000ae336b033b2e3c9fd0803ce80000006200010a565b6200036d565b3390565b600580546001600160a01b038381166001600160a01b0319831681179093556040519116919082907f8be0079c531659141344cd1fd0a4f28419497f9722a3daafe3b4186f6b6457e090600090a35050565b6001600160a01b038216620001655760405162461bcd60e51b815260206004820152601f60248201527f45524332303a206d696e7420746f20746865207a65726f206164647265737300604482015260640160405180910390fd5b806002600082825462000179919062000345565b90915550506001600160a01b038216600081815260208181526040808320805486019055518481527fddf252ad1be2c89b69c2b068fc378daa952ba7f163c4a11628f55a4df523b3ef910160405180910390a35050565b505050565b634e487b7160e01b600052604160045260246000fd5b600181811c908216806200020057607f821691505b6020821081036200022157634e487b7160e01b600052602260045260246000fd5b50919050565b601f821115620001d057600081815260208120601f850160051c81016020861015620002505750805b601f850160051c820191505b8181101562000271578281556001016200025c565b505050505050565b81516001600160401b03811115620002955762000295620001d5565b620002ad81620002a68454620001eb565b8462000227565b602080601f831160018114620002e55760008415620002cc5750858301515b600019600386901b1c1916600185901b17855562000271565b600085815260208120601f198616915b828110156200031657888601518255948401946001909101908401620002f5565b5085821015620003355787850151600019600388901b60f8161c191681555b5050505050600190811b01905550565b808201808211156200036757634e487b7160e01b600052601160045260246000fd5b92915050565b61102c806200037d6000396000f3fe608060405234801561001057600080fd5b506004361061014d5760003560e01c806379abb70b116100c3578063a457c2d71161007c578063a457c2d7146102af578063a9059cbb146102c2578063d89135cd146102d5578063dd62ed3e146102de578063e1f1c4a7146102f1578063f2fde38b146102fa57600080fd5b806379abb70b1461025657806379cc67901461025e5780638da5cb5b14610271578063902d55a51461028c5780639358928b1461029f57806395d89b41146102a757600080fd5b8063313ce56711610115578063313ce567146101db57806339509351146101ea57806342966c68146101fd57806362a778501461021257806370a0823114610225578063715018a61461024e57600080fd5b806306fdde0314610152578063095ea7b31461017057806318160ddd1461019357806323b872dd146101a55780632f37ea7a146101b8575b600080fd5b61015a61030d565b6040516101679190610de9565b60405180910390f35b61018361017e366004610e53565b61039f565b6040519015158152602001610167565b6002545b604051908152602001610167565b6101836101b3366004610e7d565b6103b9565b6101c06104df565b60408051938452602084019290925290820152606001610167565b60405160128152602001610167565b6101836101f8366004610e53565b61051f565b61021061020b366004610eb9565b610541565b005b610197610220366004610eb9565b6105b2565b610197610233366004610ed2565b6001600160a01b031660009081526020819052604090205490565b6102106105cc565b61019760c881565b61021061026c366004610e53565b6105e0565b6005546040516001600160a01b039091168152602001610167565b6101976b033b2e3c9fd0803ce800000081565b610197610669565b61015a610679565b6101836102bd366004610e53565b610688565b6101836102d0366004610e53565b610713565b61019760065481565b6101976102ec366004610ef4565b61082c565b61019761271081565b610210610308366004610ed2565b610857565b60606003805461031c90610f27565b80601f016020809104026020016040519081016040528092919081815260200182805461034890610f27565b80156103955780601f1061036a57610100808354040283529160200191610395565b820191906000526020600020905b81548152906001019060200180831161037857829003601f168201915b5050505050905090565b6000336103ad8185856108d0565b60019150505b92915050565b6000336103c78582856109f5565b60006127106103d760c886610f77565b6103e19190610f8e565b905060006103ef8286610fb0565b90508115610471576104018783610a6f565b81600660008282546104139190610fc3565b92505081905550866001600160a01b0316600080516020610fd783398151915283604051610468918152604060208201819052600d908201526c2a3930b739b332b910313ab93760991b606082015260800190565b60405180910390a25b61047c878783610b99565b856001600160a01b0316876001600160a01b03167f4eeff85208c69991a1918f86fe6c659b59e994256e9455c7229d128b4c61128e83856040516104ca929190918252602082015260400190565b60405180910390a35060019695505050505050565b60008060006104ed60025490565b60065490935091506b033b2e3c9fd0803ce800000061050e61271084610f77565b6105189190610f8e565b9050909192565b6000336103ad818585610532838361082c565b61053c9190610fc3565b6108d0565b61054b3382610a6f565b806006600082825461055d9190610fc3565b90915550506040513390600080516020610fd7833981519152906105a790848152604060208201819052600b908201526a26b0b73ab0b610313ab93760a91b606082015260800190565b60405180910390a250565b60006127106105c260c884610f77565b6103b39190610f8e565b6105d4610d3d565b6105de6000610d97565b565b6105eb8233836109f5565b6105f58282610a6f565b80600660008282546106079190610fc3565b92505081905550816001600160a01b0316600080516020610fd78339815191528260405161065d918152604060208201819052600e908201526d20b63637bbb0b731b290313ab93760911b606082015260800190565b60405180910390a25050565b600061067460025490565b905090565b60606004805461031c90610f27565b60003381610696828661082c565b9050838110156106fb5760405162461bcd60e51b815260206004820152602560248201527f45524332303a2064656372656173656420616c6c6f77616e63652062656c6f77604482015264207a65726f60d81b60648201526084015b60405180910390fd5b61070882868684036108d0565b506001949350505050565b6000338161271061072560c886610f77565b61072f9190610f8e565b9050600061073d8286610fb0565b905081156107bf5761074f8383610a6f565b81600660008282546107619190610fc3565b92505081905550826001600160a01b0316600080516020610fd7833981519152836040516107b6918152604060208201819052600d908201526c2a3930b739b332b910313ab93760991b606082015260800190565b60405180910390a25b6107ca838783610b99565b856001600160a01b0316836001600160a01b03167f4eeff85208c69991a1918f86fe6c659b59e994256e9455c7229d128b4c61128e8385604051610818929190918252602082015260400190565b60405180910390a350600195945050505050565b6001600160a01b03918216600090815260016020908152604080832093909416825291909152205490565b61085f610d3d565b6001600160a01b0381166108c45760405162461bcd60e51b815260206004820152602660248201527f4f776e61626c653a206e6577206f776e657220697320746865207a65726f206160448201526564647265737360d01b60648201526084016106f2565b6108cd81610d97565b50565b6001600160a01b0383166109325760405162461bcd60e51b8152602060048201526024808201527f45524332303a20617070726f76652066726f6d20746865207a65726f206164646044820152637265737360e01b60648201526084016106f2565b6001600160a01b0382166109935760405162461bcd60e51b815260206004820152602260248201527f45524332303a20617070726f766520746f20746865207a65726f206164647265604482015261737360f01b60648201526084016106f2565b6001600160a01b0383811660008181526001602090815260408083209487168084529482529182902085905590518481527f8c5be1e5ebec7d5bd14f71427d1e84f3dd0314c0f7b2291e5b200ac8c7c3b92591015b60405180910390a3505050565b6000610a01848461082c565b90506000198114610a695781811015610a5c5760405162461bcd60e51b815260206004820152601d60248201527f45524332303a20696e73756666696369656e7420616c6c6f77616e636500000060448201526064016106f2565b610a6984848484036108d0565b50505050565b6001600160a01b038216610acf5760405162461bcd60e51b815260206004820152602160248201527f45524332303a206275726e2066726f6d20746865207a65726f206164647265736044820152607360f81b60648201526084016106f2565b6001600160a01b03821660009081526020819052604090205481811015610b435760405162461bcd60e51b815260206004820152602260248201527f45524332303a206275726e20616d6f756e7420657863656564732062616c616e604482015261636560f01b60648201526084016106f2565b6001600160a01b0383166000818152602081815260408083208686039055600280548790039055518581529192917fddf252ad1be2c89b69c2b068fc378daa952ba7f163c4a11628f55a4df523b3ef91016109e8565b6001600160a01b038316610bfd5760405162461bcd60e51b815260206004820152602560248201527f45524332303a207472616e736665722066726f6d20746865207a65726f206164604482015264647265737360d81b60648201526084016106f2565b6001600160a01b038216610c5f5760405162461bcd60e51b815260206004820152602360248201527f45524332303a207472616e7366657220746f20746865207a65726f206164647260448201526265737360e81b60648201526084016106f2565b6001600160a01b03831660009081526020819052604090205481811015610cd75760405162461bcd60e51b815260206004820152602660248201527f45524332303a207472616e7366657220616d6f756e7420657863656564732062604482015265616c616e636560d01b60648201526084016106f2565b6001600160a01b03848116600081815260208181526040808320878703905593871680835291849020805487019055925185815290927fddf252ad1be2c89b69c2b068fc378daa952ba7f163c4a11628f55a4df523b3ef910160405180910390a3610a69565b6005546001600160a01b031633146105de5760405162461bcd60e51b815260206004820181905260248201527f4f776e61626c653a2063616c6c6572206973206e6f7420746865206f776e657260448201526064016106f2565b600580546001600160a01b038381166001600160a01b0319831681179093556040519116919082907f8be0079c531659141344cd1fd0a4f28419497f9722a3daafe3b4186f6b6457e090600090a35050565b600060208083528351808285015260005b81811015610e1657858101830151858201604001528201610dfa565b506000604082860101526040601f19601f8301168501019250505092915050565b80356001600160a01b0381168114610e4e57600080fd5b919050565b60008060408385031215610e6657600080fd5b610e6f83610e37565b946020939093013593505050565b600080600060608486031215610e9257600080fd5b610e9b84610e37565b9250610ea960208501610e37565b9150604084013590509250925092565b600060208284031215610ecb57600080fd5b5035919050565b600060208284031215610ee457600080fd5b610eed82610e37565b9392505050565b60008060408385031215610f0757600080fd5b610f1083610e37565b9150610f1e60208401610e37565b90509250929050565b600181811c90821680610f3b57607f821691505b602082108103610f5b57634e487b7160e01b600052602260045260246000fd5b50919050565b634e487b7160e01b600052601160045260246000fd5b80820281158282048414176103b3576103b3610f61565b600082610fab57634e487b7160e01b600052601260045260246000fd5b500490565b818103818111156103b3576103b3610f61565b808201808211156103b3576103b3610f6156fefad31924d655455395c87544c8aa1ffdb5a7505a22a3c2e03f28003b6556a75fa2646970667358221220173538470ade4976f9d055d72ecb2dad6648a7f9ae2d4ecfdf0fe5d5479a9f2d64736f6c63430008130033",
  "linkReferences": {},
  "deployedLinkReferences": {}
}