{
  "_format": "hh-sol-artifact-1",
  "contractName": "BasicMarketplace",
  "sourceName": "contracts/core/BasicMarketplace.sol",
  "abi": [
    {
      "inputs": [
        {
          "internalType": "address",
          "name": "_mindToken",
          "type": "address"
        }
      ],
      "stateMutability": "nonpayable",
      "type": "constructor"
    },
    {
      "anonymous": false,
      "inputs": [
        {
          "indexed": true,
          "internalType": "address",
          "name": "previousOwner",
          "type": "address"
        },
        {
          "indexed": true,
          "internalType": "address",
          "name": "newOwner",
          "type": "address"
        }
      ],
      "name": "OwnershipTransferred",
      "type": "event"
    },
    {
      "anonymous": false,
      "inputs": [
        {
          "indexed": true,
          "internalType": "uint256",
          "name": "taskId",
          "type": "uint256"
        },
        {
          "indexed": true,
          "internalType": "address",
          "name": "agent",
          "type": "address"
        }
      ],
      "name": "TaskClaimed",
      "type": "event"
    },
    {
      "anonymous": false,
      "inputs": [
        {
          "indexed": true,
          "internalType": "uint256",
          "name": "taskId",
          "type": "uint256"
        }
      ],
      "name": "TaskCompleted",
      "type": "event"
    },
    {
      "anonymous": false,
      "inputs": [
        {
          "indexed": true,
          "internalType": "uint256",
          "name": "taskId",
          "type": "uint256"
        },
        {
          "indexed": true,
          "internalType": "address",
          "name": "creator",
          "type": "address"
        },
        {
          "indexed": false,
          "internalType": "uint256",
          "name": "reward",
          "type": "uint256"
        }
      ],
      "name": "TaskCreated",
      "type": "event"
    },
    {
      "inputs": [
        {
          "internalType": "uint256",
          "name": "taskId",
          "type": "uint256"
        },
        {
          "internalType": "uint256",
          "name": "agentId",
          "type": "uint256"
        }
      ],
      "name": "claimTask",
      "outputs": [],
      "stateMutability": "nonpayable",
      "type": "function"
    },
    {
      "inputs": [
        {
          "internalType": "uint256",
          "name": "taskId",
          "type": "uint256"
        }
      ],
      "name": "completeTask",
      "outputs": [],
      "stateMutability": "nonpayable",
      "type": "function"
    },
    {
      "inputs": [
        {
          "internalType": "string",
          "name": "title",
          "type": "string"
        },
        {
          "internalType": "uint256",
          "name": "reward",
          "type": "uint256"
        },
        {
          "internalType": "uint256",
          "name": "duration",
          "type": "uint256"
        }
      ],
      "name": "createTask",
      "outputs": [
        {
          "internalType": "uint256",
          "name": "",
          "type": "uint256"
        }
      ],
      "stateMutability": "nonpayable",
      "type": "function"
    },
    {
      "inputs": [
        {
          "internalType": "uint256",
          "name": "taskId",
          "type": "uint256"
        }
      ],
      "name": "getTask",
      "outputs": [
        {
          "components": [
            {
              "internalType": "uint256",
              "name": "id",
              "type": "uint256"
            },
            {
              "internalType": "address",
              "name": "creator",
              "type": "address"
            },
            {
              "internalType": "string",
              "name": "title",
              "type": "string"
            },
            {
              "internalType": "uint256",
              "name": "reward",
              "type": "uint256"
            },
            {
              "internalType": "uint256",
              "name": "deadline",
              "type": "uint256"
            },
            {
              "internalType": "enum BasicMarketplace.TaskStatus",
              "name": "status",
              "type": "uint8"
            },
            {
              "internalType": "address",
              "name": "assignedAgent",
              "type": "address"
            },
            {
              "internalType": "uint256",
              "name": "assignedAgentId",
              "type": "uint256"
            }
          ],
          "internalType": "struct BasicMarketplace.Task",
          "name": "",
          "type": "tuple"
        }
      ],
      "stateMutability": "view",
      "type": "function"
    },
    {
      "inputs": [],
      "name": "mindToken",
      "outputs": [
        {
          "internalType": "contract IERC20",
          "name": "",
          "type": "address"
        }
      ],
      "stateMutability": "view",
      "type": "function"
    },
    {
      "inputs": [],
      "name": "owner",
      "outputs": [
        {
          "internalType": "address",
          "name": "",
          "type": "address"
        }
      ],
      "stateMutability": "view",
      "type": "function"
    },
    {
      "inputs": [],
      "name": "renounceOwnership",
      "outputs": [],
      "stateMutability": "nonpayable",
      "type": "function"
    },
    {
      "inputs": [
        {
          "internalType": "uint256",
          "name": "",
          "type": "uint256"
        }
      ],
      "name": "tasks",
      "outputs": [
        {
          "internalType": "uint256",
          "name": "id",
          "type": "uint256"
        },
        {
          "internalType": "address",
          "name": "creator",
          "type": "address"
        },
        {
          "internalType": "string",
          "name": "title",
          "type": "string"
        },
        {
          "internalType": "uint256",
          "name": "reward",
          "type": "uint256"
        },
        {
          "internalType": "uint256",
          "name": "deadline",
          "type": "uint256"
        },
        {
          "internalType": "enum BasicMarketplace.TaskStatus",
          "name": "status",
          "type": "uint8"
        },
        {
          "internalType": "address",
          "name": "assignedAgent",
          "type": "address"
        },
        {
          "internalType": "uint256",
          "name": "assignedAgentId",
          "type": "uint256"
        }
      ],
      "stateMutability": "view",
      "type": "function"
    },
    {
      "inputs": [
        {
          "internalType": "address",
          "name": "newOwner",
          "type": "address"
        }
      ],
      "name": "transferOwnership",
      "outputs": [],
      "stateMutability": "nonpayable",
      "type": "function"
    }
  ],
  "bytecode": "0x608060405234801561001057600080fd5b506040516111ec3803806111ec83398101604081905261002f91610115565b610038336100c5565b600180556001600160a01b0381166100965760405162461bcd60e51b815260206004820152601560248201527f496e76616c696420746f6b656e20616464726573730000000000000000000000604482015260640160405180910390fd5b600380546001600160a01b0319166001600160a01b0383161790556100bf600280546001019055565b50610145565b600080546001600160a01b038381166001600160a01b0319831681178455604051919092169283917f8be0079c531659141344cd1fd0a4f28419497f9722a3daafe3b4186f6b6457e09190a35050565b60006020828403121561012757600080fd5b81516001600160a01b038116811461013e57600080fd5b9392505050565b611098806101546000396000f3fe608060405234801561001057600080fd5b50600436106100935760003560e01c80638da5cb5b116100665780638da5cb5b1461010f578063d01cc48b14610134578063db6bebf914610147578063e1e295581461015a578063f2fde38b1461016d57600080fd5b8063059378ea146100985780631d65e77e146100be578063715018a6146100de5780638d977672146100e8575b600080fd5b6100ab6100a6366004610c10565b610180565b6040519081526020015b60405180910390f35b6100d16100cc366004610cd4565b610463565b6040516100b59190610d6b565b6100e66105d4565b005b6100fb6100f6366004610cd4565b6105e8565b6040516100b5989796959493929190610df4565b6000546001600160a01b03165b6040516001600160a01b0390911681526020016100b5565b60035461011c906001600160a01b031681565b6100e6610155366004610e58565b6106ca565b6100e6610168366004610cd4565b610809565b6100e661017b366004610e7a565b610a22565b600061018a610a98565b60008451116101d85760405162461bcd60e51b81526020600482015260156024820152745469746c652063616e6e6f7420626520656d70747960581b60448201526064015b60405180910390fd5b600083116102285760405162461bcd60e51b815260206004820152601d60248201527f526577617264206d7573742062652067726561746572207468616e203000000060448201526064016101cf565b6003546040516323b872dd60e01b8152336004820152306024820152604481018590526001600160a01b03909116906323b872dd906064016020604051808303816000875af115801561027f573d6000803e3d6000fd5b505050506040513d601f19601f820116820180604052508101906102a39190610ea3565b6102e05760405162461bcd60e51b815260206004820152600e60248201526d14185e5b595b9d0819985a5b195960921b60448201526064016101cf565b60006102eb60025490565b90506102fb600280546001019055565b6040805161010081018252828152336020820152908101869052606081018590526080810161032a8542610ec5565b815260200160008152600060208083018290526040928301829052848252600481529082902083518155908301516001820180546001600160a01b0319166001600160a01b0390921691909117905590820151600282019061038c9082610f75565b50606082015181600301556080820151816004015560a08201518160050160006101000a81548160ff021916908360038111156103cb576103cb610d33565b021790555060c0820151600582810180546001600160a01b0390931661010002610100600160a81b03199093169290921790915560e0909201516006909101556000828152602091825260409081902086905551858152339183917f6cf53aa7292e664152c2ea948c3b3c95d4b05c36daeb2626d0293473c4a4a153910160405180910390a3905061045c60018055565b9392505050565b61046b610b9b565b60008281526004602052604081205490036104985760405162461bcd60e51b81526004016101cf90611035565b6000828152600460209081526040918290208251610100810184528154815260018201546001600160a01b03169281019290925260028101805492939192918401916104e390610eec565b80601f016020809104026020016040519081016040528092919081815260200182805461050f90610eec565b801561055c5780601f106105315761010080835404028352916020019161055c565b820191906000526020600020905b81548152906001019060200180831161053f57829003601f168201915b5050509183525050600382810154602083015260048301546040830152600583015460609092019160ff169081111561059757610597610d33565b60038111156105a8576105a8610d33565b8152600582015461010090046001600160a01b0316602082015260069091015460409091015292915050565b6105dc610af1565b6105e66000610b4b565b565b60046020526000908152604090208054600182015460028301805492936001600160a01b039092169261061a90610eec565b80601f016020809104026020016040519081016040528092919081815260200182805461064690610eec565b80156106935780601f1061066857610100808354040283529160200191610693565b820191906000526020600020905b81548152906001019060200180831161067657829003601f168201915b505050506003830154600484015460058501546006909501549394919390925060ff82169161010090046001600160a01b03169088565b6106d2610a98565b60008281526004602052604081205490036106ff5760405162461bcd60e51b81526004016101cf90611035565b600082815260046020526040812090600582015460ff16600381111561072757610727610d33565b146107645760405162461bcd60e51b815260206004820152600d60248201526c2a30b9b5903737ba1037b832b760991b60448201526064016101cf565b428160040154116107a65760405162461bcd60e51b815260206004820152600c60248201526b15185cdac8195e1c1a5c995960a21b60448201526064016101cf565b600581018054610100339081026001600160a81b0319909216919091176001179091556006820183905560405184907f1d8996e29d44a50435d568c283ce2580e5706f87b19ff3d34f455c9d2a99462090600090a35061080560018055565b5050565b610811610a98565b600081815260046020526040812054900361083e5760405162461bcd60e51b81526004016101cf90611035565b60008181526004602052604090206001600582015460ff16600381111561086757610867610d33565b146108a75760405162461bcd60e51b815260206004820152601060248201526f15185cdac81b9bdd0818db185a5b595960821b60448201526064016101cf565b60018101546001600160a01b031633146109035760405162461bcd60e51b815260206004820152601960248201527f4f6e6c792063726561746f722063616e20636f6d706c6574650000000000000060448201526064016101cf565b6005818101805460ff191660021781556000848152602092909252604080832080549390556003549154905163a9059cbb60e01b81526001600160a01b03610100909204821660048201526024810184905291169063a9059cbb906044016020604051808303816000875af1158015610980573d6000803e3d6000fd5b505050506040513d601f19601f820116820180604052508101906109a49190610ea3565b6109e95760405162461bcd60e51b815260206004820152601660248201527514995dd85c99081d1c985b9cd9995c8819985a5b195960521b60448201526064016101cf565b60405183907fc1fa7142cfb933d0855114a3bffde296944c30b727f297c14d0db4d553d3a5c790600090a25050610a1f60018055565b50565b610a2a610af1565b6001600160a01b038116610a8f5760405162461bcd60e51b815260206004820152602660248201527f4f776e61626c653a206e6577206f776e657220697320746865207a65726f206160448201526564647265737360d01b60648201526084016101cf565b610a1f81610b4b565b600260015403610aea5760405162461bcd60e51b815260206004820152601f60248201527f5265656e7472616e637947756172643a207265656e7472616e742063616c6c0060448201526064016101cf565b6002600155565b6000546001600160a01b031633146105e65760405162461bcd60e51b815260206004820181905260248201527f4f776e61626c653a2063616c6c6572206973206e6f7420746865206f776e657260448201526064016101cf565b600080546001600160a01b038381166001600160a01b0319831681178455604051919092169283917f8be0079c531659141344cd1fd0a4f28419497f9722a3daafe3b4186f6b6457e09190a35050565b6040518061010001604052806000815260200160006001600160a01b0316815260200160608152602001600081526020016000815260200160006003811115610be657610be6610d33565b815260006020820181905260409091015290565b634e487b7160e01b600052604160045260246000fd5b600080600060608486031215610c2557600080fd5b833567ffffffffffffffff80821115610c3d57600080fd5b818601915086601f830112610c5157600080fd5b813581811115610c6357610c63610bfa565b604051601f8201601f19908116603f01168101908382118183101715610c8b57610c8b610bfa565b81604052828152896020848701011115610ca457600080fd5b82602086016020830137600060208483010152809750505050505060208401359150604084013590509250925092565b600060208284031215610ce657600080fd5b5035919050565b6000815180845260005b81811015610d1357602081850181015186830182015201610cf7565b506000602082860101526020601f19601f83011685010191505092915050565b634e487b7160e01b600052602160045260246000fd5b60048110610d6757634e487b7160e01b600052602160045260246000fd5b9052565b60208152815160208201526000602083015160018060a01b03808216604085015260408501519150610100806060860152610daa610120860184610ced565b925060608601516080860152608086015160a086015260a0860151610dd260c0870182610d49565b508160c08701511660e086015260e08601518186015250508091505092915050565b8881526001600160a01b03888116602083015261010060408301819052600091610e208483018b610ced565b9250886060850152876080850152610e3b60a0850188610d49565b80861660c085015250508260e08301529998505050505050505050565b60008060408385031215610e6b57600080fd5b50508035926020909101359150565b600060208284031215610e8c57600080fd5b81356001600160a01b038116811461045c57600080fd5b600060208284031215610eb557600080fd5b8151801515811461045c57600080fd5b80820180821115610ee657634e487b7160e01b600052601160045260246000fd5b92915050565b600181811c90821680610f0057607f821691505b602082108103610f2057634e487b7160e01b600052602260045260246000fd5b50919050565b601f821115610f7057600081815260208120601f850160051c81016020861015610f4d5750805b601f850160051c820191505b81811015610f6c57828155600101610f59565b5050505b505050565b815167ffffffffffffffff811115610f8f57610f8f610bfa565b610fa381610f9d8454610eec565b84610f26565b602080601f831160018114610fd85760008415610fc05750858301515b600019600386901b1c1916600185901b178555610f6c565b600085815260208120601f198616915b8281101561100757888601518255948401946001909101908401610fe8565b50858210156110255787850151600019600388901b60f8161c191681555b5050505050600190811b01905550565b60208082526013908201527215185cdac8191bd95cc81b9bdd08195e1a5cdd606a1b60408201526060019056fea26469706673582212201cf708cf265fe2ec5412985e55799396a9aa97479df4741e1b5f04e3de57cb3e64736f6c63430008130033",
  "linkReferences": {},
  "deployedLinkReferences": {}
}