{
  "_format": "hh-sol-artifact-1",
  "contractName": "BasicNFT",
  "sourceName": "contracts/core/BasicNFT.sol",
  "abi": [
    {
      "inputs": [],
      "stateMutability": "nonpayable",
      "type": "constructor"
    },
    {
      "anonymous": false,
      "inputs": [
        {
          "indexed": true,
          "internalType": "uint256",
          "name": "tokenId",
          "type": "uint256"
        },
        {
          "indexed": false,
          "internalType": "string",
          "name": "name",
          "type": "string"
        }
      ],
      "name": "AgentMinted",
      "type": "event"
    },
    {
      "anonymous": false,
      "inputs": [
        {
          "indexed": true,
          "internalType": "address",
          "name": "owner",
          "type": "address"
        },
        {
          "indexed": true,
          "internalType": "address",
          "name": "approved",
          "type": "address"
        },
        {
          "indexed": true,
          "internalType": "uint256",
          "name": "tokenId",
          "type": "uint256"
        }
      ],
      "name": "Approval",
      "type": "event"
    },
    {
      "anonymous": false,
      "inputs": [
        {
          "indexed": true,
          "internalType": "address",
          "name": "owner",
          "type": "address"
        },
        {
          "indexed": true,
          "internalType": "address",
          "name": "operator",
          "type": "address"
        },
        {
          "indexed": false,
          "internalType": "bool",
          "name": "approved",
          "type": "bool"
        }
      ],
      "name": "ApprovalForAll",
      "type": "event"
    },
    {
      "anonymous": false,
      "inputs": [
        {
          "indexed": true,
          "internalType": "address",
          "name": "previousOwner",
          "type": "address"
        },
        {
          "indexed": true,
          "internalType": "address",
          "name": "newOwner",
          "type": "address"
        }
      ],
      "name": "OwnershipTransferred",
      "type": "event"
    },
    {
      "anonymous": false,
      "inputs": [
        {
          "indexed": true,
          "internalType": "address",
          "name": "from",
          "type": "address"
        },
        {
          "indexed": true,
          "internalType": "address",
          "name": "to",
          "type": "address"
        },
        {
          "indexed": true,
          "internalType": "uint256",
          "name": "tokenId",
          "type": "uint256"
        }
      ],
      "name": "Transfer",
      "type": "event"
    },
    {
      "inputs": [
        {
          "internalType": "uint256",
          "name": "",
          "type": "uint256"
        }
      ],
      "name": "agents",
      "outputs": [
        {
          "internalType": "string",
          "name": "name",
          "type": "string"
        },
        {
          "internalType": "uint256",
          "name": "performanceScore",
          "type": "uint256"
        },
        {
          "internalType": "bool",
          "name": "isActive",
          "type": "bool"
        }
      ],
      "stateMutability": "view",
      "type": "function"
    },
    {
      "inputs": [
        {
          "internalType": "address",
          "name": "to",
          "type": "address"
        },
        {
          "internalType": "uint256",
          "name": "tokenId",
          "type": "uint256"
        }
      ],
      "name": "approve",
      "outputs": [],
      "stateMutability": "nonpayable",
      "type": "function"
    },
    {
      "inputs": [
        {
          "internalType": "address",
          "name": "owner",
          "type": "address"
        }
      ],
      "name": "balanceOf",
      "outputs": [
        {
          "internalType": "uint256",
          "name": "",
          "type": "uint256"
        }
      ],
      "stateMutability": "view",
      "type": "function"
    },
    {
      "inputs": [
        {
          "internalType": "uint256",
          "name": "tokenId",
          "type": "uint256"
        }
      ],
      "name": "getAgent",
      "outputs": [
        {
          "components": [
            {
              "internalType": "string",
              "name": "name",
              "type": "string"
            },
            {
              "internalType": "uint256",
              "name": "performanceScore",
              "type": "uint256"
            },
            {
              "internalType": "bool",
              "name": "isActive",
              "type": "bool"
            }
          ],
          "internalType": "struct BasicNFT.Agent",
          "name": "",
          "type": "tuple"
        }
      ],
      "stateMutability": "view",
      "type": "function"
    },
    {
      "inputs": [
        {
          "internalType": "uint256",
          "name": "tokenId",
          "type": "uint256"
        }
      ],
      "name": "getApproved",
      "outputs": [
        {
          "internalType": "address",
          "name": "",
          "type": "address"
        }
      ],
      "stateMutability": "view",
      "type": "function"
    },
    {
      "inputs": [
        {
          "internalType": "address",
          "name": "owner",
          "type": "address"
        },
        {
          "internalType": "address",
          "name": "operator",
          "type": "address"
        }
      ],
      "name": "isApprovedForAll",
      "outputs": [
        {
          "internalType": "bool",
          "name": "",
          "type": "bool"
        }
      ],
      "stateMutability": "view",
      "type": "function"
    },
    {
      "inputs": [
        {
          "internalType": "address",
          "name": "to",
          "type": "address"
        },
        {
          "internalType": "string",
          "name": "name",
          "type": "string"
        }
      ],
      "name": "mintAgent",
      "outputs": [
        {
          "internalType": "uint256",
          "name": "",
          "type": "uint256"
        }
      ],
      "stateMutability": "nonpayable",
      "type": "function"
    },
    {
      "inputs": [],
      "name": "name",
      "outputs": [
        {
          "internalType": "string",
          "name": "",
          "type": "string"
        }
      ],
      "stateMutability": "view",
      "type": "function"
    },
    {
      "inputs": [],
      "name": "owner",
      "outputs": [
        {
          "internalType": "address",
          "name": "",
          "type": "address"
        }
      ],
      "stateMutability": "view",
      "type": "function"
    },
    {
      "inputs": [
        {
          "internalType": "uint256",
          "name": "tokenId",
          "type": "uint256"
        }
      ],
      "name": "ownerOf",
      "outputs": [
        {
          "internalType": "address",
          "name": "",
          "type": "address"
        }
      ],
      "stateMutability": "view",
      "type": "function"
    },
    {
      "inputs": [],
      "name": "renounceOwnership",
      "outputs": [],
      "stateMutability": "nonpayable",
      "type": "function"
    },
    {
      "inputs": [
        {
          "internalType": "address",
          "name": "from",
          "type": "address"
        },
        {
          "internalType": "address",
          "name": "to",
          "type": "address"
        },
        {
          "internalType": "uint256",
          "name": "tokenId",
          "type": "uint256"
        }
      ],
      "name": "safeTransferFrom",
      "outputs": [],
      "stateMutability": "nonpayable",
      "type": "function"
    },
    {
      "inputs": [
        {
          "internalType": "address",
          "name": "from",
          "type": "address"
        },
        {
          "internalType": "address",
          "name": "to",
          "type": "address"
        },
        {
          "internalType": "uint256",
          "name": "tokenId",
          "type": "uint256"
        },
        {
          "internalType": "bytes",
          "name": "data",
          "type": "bytes"
        }
      ],
      "name": "safeTransferFrom",
      "outputs": [],
      "stateMutability": "nonpayable",
      "type": "function"
    },
    {
      "inputs": [
        {
          "internalType": "address",
          "name": "operator",
          "type": "address"
        },
        {
          "internalType": "bool",
          "name": "approved",
          "type": "bool"
        }
      ],
      "name": "setApprovalForAll",
      "outputs": [],
      "stateMutability": "nonpayable",
      "type": "function"
    },
    {
      "inputs": [
        {
          "internalType": "bytes4",
          "name": "interfaceId",
          "type": "bytes4"
        }
      ],
      "name": "supportsInterface",
      "outputs": [
        {
          "internalType": "bool",
          "name": "",
          "type": "bool"
        }
      ],
      "stateMutability": "view",
      "type": "function"
    },
    {
      "inputs": [],
      "name": "symbol",
      "outputs": [
        {
          "internalType": "string",
          "name": "",
          "type": "string"
        }
      ],
      "stateMutability": "view",
      "type": "function"
    },
    {
      "inputs": [
        {
          "internalType": "uint256",
          "name": "tokenId",
          "type": "uint256"
        }
      ],
      "name": "tokenURI",
      "outputs": [
        {
          "internalType": "string",
          "name": "",
          "type": "string"
        }
      ],
      "stateMutability": "view",
      "type": "function"
    },
    {
      "inputs": [
        {
          "internalType": "address",
          "name": "from",
          "type": "address"
        },
        {
          "internalType": "address",
          "name": "to",
          "type": "address"
        },
        {
          "internalType": "uint256",
          "name": "tokenId",
          "type": "uint256"
        }
      ],
      "name": "transferFrom",
      "outputs": [],
      "stateMutability": "nonpayable",
      "type": "function"
    },
    {
      "inputs": [
        {
          "internalType": "address",
          "name": "newOwner",
          "type": "address"
        }
      ],
      "name": "transferOwnership",
      "outputs": [],
      "stateMutability": "nonpayable",
      "type": "function"
    },
    {
      "inputs": [
        {
          "internalType": "uint256",
          "name": "tokenId",
          "type": "uint256"
        },
        {
          "internalType": "uint256",
          "name": "score",
          "type": "uint256"
        }
      ],
      "name": "updatePerformance",
      "outputs": [],
      "stateMutability": "nonpayable",
      "type": "function"
    }
  ],
  "bytecode": "0x60806040523480156200001157600080fd5b50604051806040016040528060088152602001671052481059d95b9d60c21b815250604051806040016040528060058152602001641051d1539560da1b81525081600090816200006291906200019e565b5060016200007182826200019e565b5050506200008e62000088620000a360201b60201c565b620000a7565b6200009d600780546001019055565b6200026a565b3390565b600680546001600160a01b038381166001600160a01b0319831681179093556040519116919082907f8be0079c531659141344cd1fd0a4f28419497f9722a3daafe3b4186f6b6457e090600090a35050565b634e487b7160e01b600052604160045260246000fd5b600181811c908216806200012457607f821691505b6020821081036200014557634e487b7160e01b600052602260045260246000fd5b50919050565b601f8211156200019957600081815260208120601f850160051c81016020861015620001745750805b601f850160051c820191505b81811015620001955782815560010162000180565b5050505b505050565b81516001600160401b03811115620001ba57620001ba620000f9565b620001d281620001cb84546200010f565b846200014b565b602080601f8311600181146200020a5760008415620001f15750858301515b600019600386901b1c1916600185901b17855562000195565b600085815260208120601f198616915b828110156200023b578886015182559484019460019091019084016200021a565b50858210156200025a5787850151600019600388901b60f8161c191681555b5050505050600190811b01905550565b611a37806200027a6000396000f3fe608060405234801561001057600080fd5b506004361061012c5760003560e01c806370a08231116100ad578063b135dead11610071578063b135dead14610291578063b88d4fde146102a4578063c87b56dd146102b7578063e985e9c5146102ca578063f2fde38b1461030657600080fd5b806370a082311461023c578063715018a61461025d5780638da5cb5b1461026557806395d89b4114610276578063a22cb4651461027e57600080fd5b806323b872dd116100f457806323b872dd146101c15780632de5aaf7146101d457806342842e0e146101f4578063513856c8146102075780636352211e1461022957600080fd5b806301ffc9a71461013157806306fdde0314610159578063081812fc1461016e578063095ea7b3146101995780631444663e146101ae575b600080fd5b61014461013f3660046113b3565b610319565b60405190151581526020015b60405180910390f35b61016161036b565b6040516101509190611420565b61018161017c366004611433565b6103fd565b6040516001600160a01b039091168152602001610150565b6101ac6101a7366004611468565b610424565b005b6101ac6101bc366004611492565b61053e565b6101ac6101cf3660046114b4565b6105b6565b6101e76101e2366004611433565b6105e7565b60405161015091906114f0565b6101ac6102023660046114b4565b610732565b61021a610215366004611433565b61074d565b6040516101509392919061152e565b610181610237366004611433565b6107fb565b61024f61024a366004611558565b61085b565b604051908152602001610150565b6101ac6108e1565b6006546001600160a01b0316610181565b6101616108f5565b6101ac61028c366004611573565b610904565b61024f61029f36600461163b565b610913565b6101ac6102b236600461169d565b6109d7565b6101616102c5366004611433565b610a0f565b6101446102d8366004611719565b6001600160a01b03918216600090815260056020908152604080832093909416825291909152205460ff1690565b6101ac610314366004611558565b610a83565b60006001600160e01b031982166380ac58cd60e01b148061034a57506001600160e01b03198216635b5e139f60e01b145b8061036557506301ffc9a760e01b6001600160e01b03198316145b92915050565b60606000805461037a9061174c565b80601f01602080910402602001604051908101604052809291908181526020018280546103a69061174c565b80156103f35780601f106103c8576101008083540402835291602001916103f3565b820191906000526020600020905b8154815290600101906020018083116103d657829003601f168201915b5050505050905090565b600061040882610afc565b506000908152600460205260409020546001600160a01b031690565b600061042f826107fb565b9050806001600160a01b0316836001600160a01b0316036104a15760405162461bcd60e51b815260206004820152602160248201527f4552433732313a20617070726f76616c20746f2063757272656e74206f776e656044820152603960f91b60648201526084015b60405180910390fd5b336001600160a01b03821614806104bd57506104bd81336102d8565b61052f5760405162461bcd60e51b815260206004820152603d60248201527f4552433732313a20617070726f76652063616c6c6572206973206e6f7420746f60448201527f6b656e206f776e6572206f7220617070726f76656420666f7220616c6c0000006064820152608401610498565b6105398383610b5b565b505050565b610546610bc9565b6000828152600260205260409020546001600160a01b03166105a15760405162461bcd60e51b8152602060048201526014602482015273151bdad95b88191bd95cc81b9bdd08195e1a5cdd60621b6044820152606401610498565b60009182526008602052604090912060010155565b6105c03382610c23565b6105dc5760405162461bcd60e51b815260040161049890611786565b610539838383610ca2565b61060d604051806060016040528060608152602001600081526020016000151581525090565b6000828152600260205260409020546001600160a01b03166106685760405162461bcd60e51b8152602060048201526014602482015273151bdad95b88191bd95cc81b9bdd08195e1a5cdd60621b6044820152606401610498565b600082815260086020526040908190208151606081019092528054829082906106909061174c565b80601f01602080910402602001604051908101604052809291908181526020018280546106bc9061174c565b80156107095780601f106106de57610100808354040283529160200191610709565b820191906000526020600020905b8154815290600101906020018083116106ec57829003601f168201915b50505091835250506001820154602082015260029091015460ff16151560409091015292915050565b610539838383604051806020016040528060008152506109d7565b6008602052600090815260409020805481906107689061174c565b80601f01602080910402602001604051908101604052809291908181526020018280546107949061174c565b80156107e15780601f106107b6576101008083540402835291602001916107e1565b820191906000526020600020905b8154815290600101906020018083116107c457829003601f168201915b50505050600183015460029093015491929160ff16905083565b6000818152600260205260408120546001600160a01b0316806103655760405162461bcd60e51b8152602060048201526018602482015277115490cdcc8c4e881a5b9d985b1a59081d1bdad95b88125160421b6044820152606401610498565b60006001600160a01b0382166108c55760405162461bcd60e51b815260206004820152602960248201527f4552433732313a2061646472657373207a65726f206973206e6f7420612076616044820152683634b21037bbb732b960b91b6064820152608401610498565b506001600160a01b031660009081526003602052604090205490565b6108e9610bc9565b6108f36000610e06565b565b60606001805461037a9061174c565b61090f338383610e58565b5050565b60008061091f60075490565b905061092f600780546001019055565b6109398482610f26565b6040805160608101825284815260326020808301919091526001828401526000848152600890915291909120815181906109739082611821565b50602082015160018201556040918201516002909101805460ff19169115159190911790555181907f548709c7cd20820fee34adb339590698bdf654121df010148118e7bda8734d96906109c8908690611420565b60405180910390a29392505050565b6109e13383610c23565b6109fd5760405162461bcd60e51b815260040161049890611786565b610a0984848484610f40565b50505050565b6060610a1a82610afc565b6000610a3160408051602081019091526000815290565b90506000815111610a515760405180602001604052806000815250610a7c565b80610a5b84610f73565b604051602001610a6c9291906118e1565b6040516020818303038152906040525b9392505050565b610a8b610bc9565b6001600160a01b038116610af05760405162461bcd60e51b815260206004820152602660248201527f4f776e61626c653a206e6577206f776e657220697320746865207a65726f206160448201526564647265737360d01b6064820152608401610498565b610af981610e06565b50565b6000818152600260205260409020546001600160a01b0316610af95760405162461bcd60e51b8152602060048201526018602482015277115490cdcc8c4e881a5b9d985b1a59081d1bdad95b88125160421b6044820152606401610498565b600081815260046020526040902080546001600160a01b0319166001600160a01b0384169081179091558190610b90826107fb565b6001600160a01b03167f8c5be1e5ebec7d5bd14f71427d1e84f3dd0314c0f7b2291e5b200ac8c7c3b92560405160405180910390a45050565b6006546001600160a01b031633146108f35760405162461bcd60e51b815260206004820181905260248201527f4f776e61626c653a2063616c6c6572206973206e6f7420746865206f776e65726044820152606401610498565b600080610c2f836107fb565b9050806001600160a01b0316846001600160a01b03161480610c7657506001600160a01b0380821660009081526005602090815260408083209388168352929052205460ff165b80610c9a5750836001600160a01b0316610c8f846103fd565b6001600160a01b0316145b949350505050565b826001600160a01b0316610cb5826107fb565b6001600160a01b031614610cdb5760405162461bcd60e51b815260040161049890611910565b6001600160a01b038216610d3d5760405162461bcd60e51b8152602060048201526024808201527f4552433732313a207472616e7366657220746f20746865207a65726f206164646044820152637265737360e01b6064820152608401610498565b826001600160a01b0316610d50826107fb565b6001600160a01b031614610d765760405162461bcd60e51b815260040161049890611910565b600081815260046020908152604080832080546001600160a01b03199081169091556001600160a01b0387811680865260038552838620805460001901905590871680865283862080546001019055868652600290945282852080549092168417909155905184937fddf252ad1be2c89b69c2b068fc378daa952ba7f163c4a11628f55a4df523b3ef91a4505050565b600680546001600160a01b038381166001600160a01b0319831681179093556040519116919082907f8be0079c531659141344cd1fd0a4f28419497f9722a3daafe3b4186f6b6457e090600090a35050565b816001600160a01b0316836001600160a01b031603610eb95760405162461bcd60e51b815260206004820152601960248201527f4552433732313a20617070726f766520746f2063616c6c6572000000000000006044820152606401610498565b6001600160a01b03838116600081815260056020908152604080832094871680845294825291829020805460ff191686151590811790915591519182527f17307eab39ab6107e8899845ad3d59bd9653f200f220920489ca2b5937696c31910160405180910390a3505050565b61090f828260405180602001604052806000815250611006565b610f4b848484610ca2565b610f5784848484611039565b610a095760405162461bcd60e51b815260040161049890611955565b60606000610f808361113a565b600101905060008167ffffffffffffffff811115610fa057610fa06115af565b6040519080825280601f01601f191660200182016040528015610fca576020820181803683370190505b5090508181016020015b600019016f181899199a1a9b1b9c1cb0b131b232b360811b600a86061a8153600a8504945084610fd457509392505050565b6110108383611212565b61101d6000848484611039565b6105395760405162461bcd60e51b815260040161049890611955565b60006001600160a01b0384163b1561112f57604051630a85bd0160e11b81526001600160a01b0385169063150b7a029061107d9033908990889088906004016119a7565b6020604051808303816000875af19250505080156110b8575060408051601f3d908101601f191682019092526110b5918101906119e4565b60015b611115573d8080156110e6576040519150601f19603f3d011682016040523d82523d6000602084013e6110eb565b606091505b50805160000361110d5760405162461bcd60e51b815260040161049890611955565b805181602001fd5b6001600160e01b031916630a85bd0160e11b149050610c9a565b506001949350505050565b60008072184f03e93ff9f4daa797ed6e38ed64bf6a1f0160401b83106111795772184f03e93ff9f4daa797ed6e38ed64bf6a1f0160401b830492506040015b6d04ee2d6d415b85acef810000000083106111a5576d04ee2d6d415b85acef8100000000830492506020015b662386f26fc1000083106111c357662386f26fc10000830492506010015b6305f5e10083106111db576305f5e100830492506008015b61271083106111ef57612710830492506004015b60648310611201576064830492506002015b600a83106103655760010192915050565b6001600160a01b0382166112685760405162461bcd60e51b815260206004820181905260248201527f4552433732313a206d696e7420746f20746865207a65726f20616464726573736044820152606401610498565b6000818152600260205260409020546001600160a01b0316156112cd5760405162461bcd60e51b815260206004820152601c60248201527f4552433732313a20746f6b656e20616c7265616479206d696e746564000000006044820152606401610498565b6000818152600260205260409020546001600160a01b0316156113325760405162461bcd60e51b815260206004820152601c60248201527f4552433732313a20746f6b656e20616c7265616479206d696e746564000000006044820152606401610498565b6001600160a01b038216600081815260036020908152604080832080546001019055848352600290915280822080546001600160a01b0319168417905551839291907fddf252ad1be2c89b69c2b068fc378daa952ba7f163c4a11628f55a4df523b3ef908290a45050565b6001600160e01b031981168114610af957600080fd5b6000602082840312156113c557600080fd5b8135610a7c8161139d565b60005b838110156113eb5781810151838201526020016113d3565b50506000910152565b6000815180845261140c8160208601602086016113d0565b601f01601f19169290920160200192915050565b602081526000610a7c60208301846113f4565b60006020828403121561144557600080fd5b5035919050565b80356001600160a01b038116811461146357600080fd5b919050565b6000806040838503121561147b57600080fd5b6114848361144c565b946020939093013593505050565b600080604083850312156114a557600080fd5b50508035926020909101359150565b6000806000606084860312156114c957600080fd5b6114d28461144c565b92506114e06020850161144c565b9150604084013590509250925092565b60208152600082516060602084015261150c60808401826113f4565b9050602084015160408401526040840151151560608401528091505092915050565b60608152600061154160608301866113f4565b602083019490945250901515604090910152919050565b60006020828403121561156a57600080fd5b610a7c8261144c565b6000806040838503121561158657600080fd5b61158f8361144c565b9150602083013580151581146115a457600080fd5b809150509250929050565b634e487b7160e01b600052604160045260246000fd5b600067ffffffffffffffff808411156115e0576115e06115af565b604051601f8501601f19908116603f01168101908282118183101715611608576116086115af565b8160405280935085815286868601111561162157600080fd5b858560208301376000602087830101525050509392505050565b6000806040838503121561164e57600080fd5b6116578361144c565b9150602083013567ffffffffffffffff81111561167357600080fd5b8301601f8101851361168457600080fd5b611693858235602084016115c5565b9150509250929050565b600080600080608085870312156116b357600080fd5b6116bc8561144c565b93506116ca6020860161144c565b925060408501359150606085013567ffffffffffffffff8111156116ed57600080fd5b8501601f810187136116fe57600080fd5b61170d878235602084016115c5565b91505092959194509250565b6000806040838503121561172c57600080fd5b6117358361144c565b91506117436020840161144c565b90509250929050565b600181811c9082168061176057607f821691505b60208210810361178057634e487b7160e01b600052602260045260246000fd5b50919050565b6020808252602d908201527f4552433732313a2063616c6c6572206973206e6f7420746f6b656e206f776e6560408201526c1c881bdc88185c1c1c9bdd9959609a1b606082015260800190565b601f82111561053957600081815260208120601f850160051c810160208610156117fa5750805b601f850160051c820191505b8181101561181957828155600101611806565b505050505050565b815167ffffffffffffffff81111561183b5761183b6115af565b61184f81611849845461174c565b846117d3565b602080601f831160018114611884576000841561186c5750858301515b600019600386901b1c1916600185901b178555611819565b600085815260208120601f198616915b828110156118b357888601518255948401946001909101908401611894565b50858210156118d15787850151600019600388901b60f8161c191681555b5050505050600190811b01905550565b600083516118f38184602088016113d0565b8351908301906119078183602088016113d0565b01949350505050565b60208082526025908201527f4552433732313a207472616e736665722066726f6d20696e636f72726563742060408201526437bbb732b960d91b606082015260800190565b60208082526032908201527f4552433732313a207472616e7366657220746f206e6f6e20455243373231526560408201527131b2b4bb32b91034b6b83632b6b2b73a32b960711b606082015260800190565b6001600160a01b03858116825284166020820152604081018390526080606082018190526000906119da908301846113f4565b9695505050505050565b6000602082840312156119f657600080fd5b8151610a7c8161139d56fea264697066735822122011ff9d990e35af61d6f666bba373bef1be4769a81311ec813d6bfe9429cd2fa564736f6c63430008130033",
  "linkReferences": {},
  "deployedLinkReferences": {}
}