{
  "_format": "hh-sol-artifact-1",
  "contractName": "KamikazeStaking",
  "sourceName": "contracts/core/MindStaking.sol",
  "abi": [
    {
      "inputs": [
        {
          "internalType": "address",
          "name": "_kamikazeToken",
          "type": "address"
        }
      ],
      "stateMutability": "nonpayable",
      "type": "constructor"
    },
    {
      "anonymous": false,
      "inputs": [
        {
          "indexed": true,
          "internalType": "address",
          "name": "previousOwner",
          "type": "address"
        },
        {
          "indexed": true,
          "internalType": "address",
          "name": "newOwner",
          "type": "address"
        }
      ],
      "name": "OwnershipTransferred",
      "type": "event"
    },
    {
      "anonymous": false,
      "inputs": [
        {
          "indexed": true,
          "internalType": "address",
          "name": "user",
          "type": "address"
        },
        {
          "indexed": false,
          "internalType": "uint256",
          "name": "reward",
          "type": "uint256"
        }
      ],
      "name": "RewardClaimed",
      "type": "event"
    },
    {
      "anonymous": false,
      "inputs": [
        {
          "indexed": true,
          "internalType": "address",
          "name": "user",
          "type": "address"
        },
        {
          "indexed": false,
          "internalType": "uint256",
          "name": "amount",
          "type": "uint256"
        },
        {
          "indexed": false,
          "internalType": "uint256",
          "name": "lockPeriod",
          "type": "uint256"
        }
      ],
      "name": "Staked",
      "type": "event"
    },
    {
      "anonymous": false,
      "inputs": [
        {
          "indexed": true,
          "internalType": "address",
          "name": "user",
          "type": "address"
        },
        {
          "indexed": false,
          "internalType": "uint256",
          "name": "amount",
          "type": "uint256"
        },
        {
          "indexed": false,
          "internalType": "uint256",
          "name": "reward",
          "type": "uint256"
        }
      ],
      "name": "Unstaked",
      "type": "event"
    },
    {
      "inputs": [],
      "name": "MONTH_LOCK_MULTIPLIER",
      "outputs": [
        {
          "internalType": "uint256",
          "name": "",
          "type": "uint256"
        }
      ],
      "stateMutability": "view",
      "type": "function"
    },
    {
      "inputs": [],
      "name": "MONTH_LOCK_PERIOD",
      "outputs": [
        {
          "internalType": "uint256",
          "name": "",
          "type": "uint256"
        }
      ],
      "stateMutability": "view",
      "type": "function"
    },
    {
      "inputs": [],
      "name": "NO_LOCK_MULTIPLIER",
      "outputs": [
        {
          "internalType": "uint256",
          "name": "",
          "type": "uint256"
        }
      ],
      "stateMutability": "view",
      "type": "function"
    },
    {
      "inputs": [],
      "name": "NO_LOCK_PERIOD",
      "outputs": [
        {
          "internalType": "uint256",
          "name": "",
          "type": "uint256"
        }
      ],
      "stateMutability": "view",
      "type": "function"
    },
    {
      "inputs": [],
      "name": "QUARTER_LOCK_MULTIPLIER",
      "outputs": [
        {
          "internalType": "uint256",
          "name": "",
          "type": "uint256"
        }
      ],
      "stateMutability": "view",
      "type": "function"
    },
    {
      "inputs": [],
      "name": "QUARTER_LOCK_PERIOD",
      "outputs": [
        {
          "internalType": "uint256",
          "name": "",
          "type": "uint256"
        }
      ],
      "stateMutability": "view",
      "type": "function"
    },
    {
      "inputs": [],
      "name": "REWARD_PRECISION",
      "outputs": [
        {
          "internalType": "uint256",
          "name": "",
          "type": "uint256"
        }
      ],
      "stateMutability": "view",
      "type": "function"
    },
    {
      "inputs": [],
      "name": "SECONDS_PER_YEAR",
      "outputs": [
        {
          "internalType": "uint256",
          "name": "",
          "type": "uint256"
        }
      ],
      "stateMutability": "view",
      "type": "function"
    },
    {
      "inputs": [],
      "name": "YEAR_LOCK_MULTIPLIER",
      "outputs": [
        {
          "internalType": "uint256",
          "name": "",
          "type": "uint256"
        }
      ],
      "stateMutability": "view",
      "type": "function"
    },
    {
      "inputs": [],
      "name": "YEAR_LOCK_PERIOD",
      "outputs": [
        {
          "internalType": "uint256",
          "name": "",
          "type": "uint256"
        }
      ],
      "stateMutability": "view",
      "type": "function"
    },
    {
      "inputs": [
        {
          "internalType": "address",
          "name": "_user",
          "type": "address"
        },
        {
          "internalType": "uint256",
          "name": "_stakeIndex",
          "type": "uint256"
        }
      ],
      "name": "calculateReward",
      "outputs": [
        {
          "internalType": "uint256",
          "name": "",
          "type": "uint256"
        }
      ],
      "stateMutability": "view",
      "type": "function"
    },
    {
      "inputs": [
        {
          "internalType": "uint256",
          "name": "_stakeIndex",
          "type": "uint256"
        }
      ],
      "name": "claimReward",
      "outputs": [],
      "stateMutability": "nonpayable",
      "type": "function"
    },
    {
      "inputs": [],
      "name": "emergencyWithdraw",
      "outputs": [],
      "stateMutability": "nonpayable",
      "type": "function"
    },
    {
      "inputs": [
        {
          "internalType": "address",
          "name": "_user",
          "type": "address"
        }
      ],
      "name": "getTotalRewards",
      "outputs": [
        {
          "internalType": "uint256",
          "name": "",
          "type": "uint256"
        }
      ],
      "stateMutability": "view",
      "type": "function"
    },
    {
      "inputs": [
        {
          "internalType": "address",
          "name": "_user",
          "type": "address"
        }
      ],
      "name": "getUserStakeCount",
      "outputs": [
        {
          "internalType": "uint256",
          "name": "",
          "type": "uint256"
        }
      ],
      "stateMutability": "view",
      "type": "function"
    },
    {
      "inputs": [
        {
          "internalType": "address",
          "name": "_user",
          "type": "address"
        }
      ],
      "name": "getUserStakes",
      "outputs": [
        {
          "components": [
            {
              "internalType": "uint256",
              "name": "amount",
              "type": "uint256"
            },
            {
              "internalType": "uint256",
              "name": "timestamp",
              "type": "uint256"
            },
            {
              "internalType": "uint256",
              "name": "rewardDebt",
              "type": "uint256"
            },
            {
              "internalType": "uint256",
              "name": "lockPeriod",
              "type": "uint256"
            }
          ],
          "internalType": "struct KamikazeStaking.StakeInfo[]",
          "name": "",
          "type": "tuple[]"
        }
      ],
      "stateMutability": "view",
      "type": "function"
    },
    {
      "inputs": [],
      "name": "kamikazeToken",
      "outputs": [
        {
          "internalType": "contract IERC20",
          "name": "",
          "type": "address"
        }
      ],
      "stateMutability": "view",
      "type": "function"
    },
    {
      "inputs": [],
      "name": "owner",
      "outputs": [
        {
          "internalType": "address",
          "name": "",
          "type": "address"
        }
      ],
      "stateMutability": "view",
      "type": "function"
    },
    {
      "inputs": [],
      "name": "renounceOwnership",
      "outputs": [],
      "stateMutability": "nonpayable",
      "type": "function"
    },
    {
      "inputs": [],
      "name": "rewardRate",
      "outputs": [
        {
          "internalType": "uint256",
          "name": "",
          "type": "uint256"
        }
      ],
      "stateMutability": "view",
      "type": "function"
    },
    {
      "inputs": [
        {
          "internalType": "uint256",
          "name": "_newRate",
          "type": "uint256"
        }
      ],
      "name": "setRewardRate",
      "outputs": [],
      "stateMutability": "nonpayable",
      "type": "function"
    },
    {
      "inputs": [
        {
          "internalType": "uint256",
          "name": "_amount",
          "type": "uint256"
        },
        {
          "internalType": "uint256",
          "name": "_lockPeriod",
          "type": "uint256"
        }
      ],
      "name": "stake",
      "outputs": [],
      "stateMutability": "nonpayable",
      "type": "function"
    },
    {
      "inputs": [],
      "name": "totalPoolStaked",
      "outputs": [
        {
          "internalType": "uint256",
          "name": "",
          "type": "uint256"
        }
      ],
      "stateMutability": "view",
      "type": "function"
    },
    {
      "inputs": [
        {
          "internalType": "address",
          "name": "",
          "type": "address"
        }
      ],
      "name": "totalStaked",
      "outputs": [
        {
          "internalType": "uint256",
          "name": "",
          "type": "uint256"
        }
      ],
      "stateMutability": "view",
      "type": "function"
    },
    {
      "inputs": [
        {
          "internalType": "address",
          "name": "newOwner",
          "type": "address"
        }
      ],
      "name": "transferOwnership",
      "outputs": [],
      "stateMutability": "nonpayable",
      "type": "function"
    },
    {
      "inputs": [
        {
          "internalType": "uint256",
          "name": "_stakeIndex",
          "type": "uint256"
        }
      ],
      "name": "unstake",
      "outputs": [],
      "stateMutability": "nonpayable",
      "type": "function"
    },
    {
      "inputs": [
        {
          "internalType": "address",
          "name": "",
          "type": "address"
        },
        {
          "internalType": "uint256",
          "name": "",
          "type": "uint256"
        }
      ],
      "name": "userStakes",
      "outputs": [
        {
          "internalType": "uint256",
          "name": "amount",
          "type": "uint256"
        },
        {
          "internalType": "uint256",
          "name": "timestamp",
          "type": "uint256"
        },
        {
          "internalType": "uint256",
          "name": "rewardDebt",
          "type": "uint256"
        },
        {
          "internalType": "uint256",
          "name": "lockPeriod",
          "type": "uint256"
        }
      ],
      "stateMutability": "view",
      "type": "function"
    }
  ],
  "bytecode": "0x60a0604052606460055534801561001557600080fd5b50604051611392380380611392833981016040819052610034916100a5565b600160005561004233610053565b6001600160a01b03166080526100d5565b600180546001600160a01b038381166001600160a01b0319831681179093556040519116919082907f8be0079c531659141344cd1fd0a4f28419497f9722a3daafe3b4186f6b6457e090600090a35050565b6000602082840312156100b757600080fd5b81516001600160a01b03811681146100ce57600080fd5b9392505050565b60805161127f6101136000396000818161035f015281816106a90152818161086d01528181610bf601528181610d130152610d8a015261127f6000f3fe608060405234801561001057600080fd5b50600436106101a95760003560e01c806388d7776a116100f9578063b5d5b5fa11610097578063dc3b3d7711610071578063dc3b3d771461035a578063e6a69ab8146102ce578063f29fc2d814610381578063f2fde38b1461038a57600080fd5b8063b5d5b5fa1461031f578063cfa6636714610236578063db2e21bc1461035257600080fd5b806399e8b87d116100d357806399e8b87d146102ce5780639bfd8d61146102d95780639e447fc6146102f9578063ae169a501461030c57600080fd5b806388d7776a146102955780638da5cb5b1461029f57806395b49c5a146102c457600080fd5b80633d6aa5e111610166578063715018a611610140578063715018a6146102515780637b0472f0146102595780637b0a47ee1461026c578063842e29811461027557600080fd5b80633d6aa5e1146102365780633f3ad3e61461023f5780634e8e0c581461024857600080fd5b80631852e8d9146101ae5780631b545a17146101d45780632bcf161c146101fd5780632c0316b3146102105780632e17de781461021957806333d96bd71461022e575b600080fd5b6101c16101bc366004611052565b61039d565b6040519081526020015b60405180910390f35b6101c16101e236600461107c565b6001600160a01b031660009081526002602052604090205490565b6101c161020b36600461107c565b6104e2565b6101c160045481565b61022c61022736600461109e565b610536565b005b6101c1600081565b6101c16103e881565b6101c16104b081565b6101c16107d081565b61022c610794565b61022c6102673660046110b7565b6107a8565b6101c160055481565b61028861028336600461107c565b6109c7565b6040516101cb91906110d9565b6101c16276a70081565b6001546001600160a01b03165b6040516001600160a01b0390911681526020016101cb565b6101c162278d0081565b6101c16301e1338081565b6101c16102e736600461107c565b60036020526000908152604090205481565b61022c61030736600461109e565b610a64565b61022c61031a36600461109e565b610aba565b61033261032d366004611052565b610cad565b6040805194855260208501939093529183015260608201526080016101cb565b61022c610cf3565b6102ac7f000000000000000000000000000000000000000000000000000000000000000081565b6101c16105dc81565b61022c61039836600461107c565b610e3a565b6001600160a01b03821660009081526002602052604081205482106103dd5760405162461bcd60e51b81526004016103d49061113d565b60405180910390fd5b6001600160a01b03831660009081526002602052604081208054849081106104075761040761116a565b9060005260206000209060040201604051806080016040529081600082015481526020016001820154815260200160028201548152602001600382015481525050905080600001516000036104605760009150506104dc565b60008160200151426104729190611196565b905060006104838360600151610eb0565b905060006104936103e8806111a9565b600554855184916104a3916111a9565b6104ad91906111a9565b6104b791906111c0565b905060006301e133806104ca85846111a9565b6104d491906111c0565b955050505050505b92915050565b600080805b6001600160a01b03841660009081526002602052604090205481101561052f57610511848261039d565b61051b90836111e2565b915080610527816111f5565b9150506104e7565b5092915050565b61053e610f03565b33600090815260026020526040902054811061056c5760405162461bcd60e51b81526004016103d49061113d565b33600090815260026020526040812080548390811061058d5761058d61116a565b9060005260206000209060040201905060008160000154116105f15760405162461bcd60e51b815260206004820152601760248201527f5374616b6520616c72656164792077697468647261776e00000000000000000060448201526064016103d4565b8060030154816001015461060591906111e2565b42101561064c5760405162461bcd60e51b815260206004820152601560248201527414dd185ad9481a5cc81cdd1a5b1b081b1bd8dad959605a1b60448201526064016103d4565b6000610658338461039d565b825460008085553381526003602052604081208054939450919283929190610681908490611196565b92505081905550806004600082825461069a9190611196565b90915550506001600160a01b037f00000000000000000000000000000000000000000000000000000000000000001663a9059cbb336106d985856111e2565b6040516001600160e01b031960e085901b1681526001600160a01b03909216600483015260248201526044016020604051808303816000875af1158015610724573d6000803e3d6000fd5b505050506040513d601f19601f82011682018060405250810190610748919061120e565b50604080518281526020810184905233917f7fc4727e062e336010f2c282598ef5f14facb3de68cf8195c2f23e1454b2b74e910160405180910390a25050506107916001600055565b50565b61079c610f5c565b6107a66000610fb6565b565b6107b0610f03565b600082116108005760405162461bcd60e51b815260206004820152601d60248201527f416d6f756e74206d7573742062652067726561746572207468616e203000000060448201526064016103d4565b61080981611008565b61084b5760405162461bcd60e51b8152602060048201526013602482015272125b9d985b1a59081b1bd8dac81c195c9a5bd9606a1b60448201526064016103d4565b6040516323b872dd60e01b8152336004820152306024820152604481018390527f00000000000000000000000000000000000000000000000000000000000000006001600160a01b0316906323b872dd906064016020604051808303816000875af11580156108be573d6000803e3d6000fd5b505050506040513d601f19601f820116820180604052508101906108e2919061120e565b50336000818152600260208181526040808420815160808101835288815242818501908152818401878152606083018a8152845460018181018755958a52878a2094516004909102909401938455915193830193909355915194810194909455516003938401559383525290812080548492906109609084906111e2565b92505081905550816004600082825461097991906111e2565b9091555050604080518381526020810183905233917f1449c6dd7851abc30abf37f57715f492010519147cc2652fbc38202c18a6ee90910160405180910390a26109c36001600055565b5050565b6001600160a01b0381166000908152600260209081526040808320805482518185028101850190935280835260609492939192909184015b82821015610a595783829060005260206000209060040201604051806080016040529081600082015481526020016001820154815260200160028201548152602001600382015481525050815260200190600101906109ff565b505050509050919050565b610a6c610f5c565b6101f4811115610ab55760405162461bcd60e51b81526020600482015260146024820152730a4caeec2e4c840e4c2e8ca40e8dede40d0d2ced60631b60448201526064016103d4565b600555565b610ac2610f03565b336000908152600260205260409020548110610af05760405162461bcd60e51b81526004016103d49061113d565b336000908152600260205260408120805483908110610b1157610b1161116a565b906000526020600020906004020190506000816000015411610b675760405162461bcd60e51b815260206004820152600f60248201526e4e6f20616374697665207374616b6560881b60448201526064016103d4565b6000610b73338461039d565b905060008111610bbb5760405162461bcd60e51b81526020600482015260136024820152724e6f2072657761726420617661696c61626c6560681b60448201526064016103d4565b80826002016000828254610bcf91906111e2565b909155505042600183015560405163a9059cbb60e01b8152336004820152602481018290527f00000000000000000000000000000000000000000000000000000000000000006001600160a01b03169063a9059cbb906044016020604051808303816000875af1158015610c47573d6000803e3d6000fd5b505050506040513d601f19601f82011682018060405250810190610c6b919061120e565b5060405181815233907f106f923f993c2149d49b4255ff723acafa1f2d94393f561d3eda32ae348f72419060200160405180910390a250506107916001600055565b60026020528160005260406000208181548110610cc957600080fd5b60009182526020909120600490910201805460018201546002830154600390930154919450925084565b610cfb610f5c565b6040516370a0823160e01b81523060048201526000907f00000000000000000000000000000000000000000000000000000000000000006001600160a01b0316906370a0823190602401602060405180830381865afa158015610d62573d6000803e3d6000fd5b505050506040513d601f19601f82011682018060405250810190610d869190611230565b90507f00000000000000000000000000000000000000000000000000000000000000006001600160a01b031663a9059cbb610dc96001546001600160a01b031690565b6040516001600160e01b031960e084901b1681526001600160a01b039091166004820152602481018490526044016020604051808303816000875af1158015610e16573d6000803e3d6000fd5b505050506040513d601f19601f820116820180604052508101906109c3919061120e565b610e42610f5c565b6001600160a01b038116610ea75760405162461bcd60e51b815260206004820152602660248201527f4f776e61626c653a206e6577206f776e657220697320746865207a65726f206160448201526564647265737360d01b60648201526084016103d4565b61079181610fb6565b600081610ec057506103e8919050565b62278d008203610ed357506104b0919050565b6276a7008203610ee657506105dc919050565b6301e133808203610efa57506107d0919050565b506103e8919050565b600260005403610f555760405162461bcd60e51b815260206004820152601f60248201527f5265656e7472616e637947756172643a207265656e7472616e742063616c6c0060448201526064016103d4565b6002600055565b6001546001600160a01b031633146107a65760405162461bcd60e51b815260206004820181905260248201527f4f776e61626c653a2063616c6c6572206973206e6f7420746865206f776e657260448201526064016103d4565b600180546001600160a01b038381166001600160a01b0319831681179093556040519116919082907f8be0079c531659141344cd1fd0a4f28419497f9722a3daafe3b4186f6b6457e090600090a35050565b6000811580611019575062278d0082145b8061102657506276a70082145b806104dc5750506301e133801490565b80356001600160a01b038116811461104d57600080fd5b919050565b6000806040838503121561106557600080fd5b61106e83611036565b946020939093013593505050565b60006020828403121561108e57600080fd5b61109782611036565b9392505050565b6000602082840312156110b057600080fd5b5035919050565b600080604083850312156110ca57600080fd5b50508035926020909101359150565b602080825282518282018190526000919060409081850190868401855b82811015611130578151805185528681015187860152858101518686015260609081015190850152608090930192908501906001016110f6565b5091979650505050505050565b602080825260139082015272092dcecc2d8d2c840e6e8c2d6ca40d2dcc8caf606b1b604082015260600190565b634e487b7160e01b600052603260045260246000fd5b634e487b7160e01b600052601160045260246000fd5b818103818111156104dc576104dc611180565b80820281158282048414176104dc576104dc611180565b6000826111dd57634e487b7160e01b600052601260045260246000fd5b500490565b808201808211156104dc576104dc611180565b60006001820161120757611207611180565b5060010190565b60006020828403121561122057600080fd5b8151801515811461109757600080fd5b60006020828403121561124257600080fd5b505191905056fea2646970667358221220cfa48c32b03a5262c1b52de71477aeb78f2a716973be8bd0d04042f0afa055fe64736f6c63430008130033",
  "linkReferences": {},
  "deployedLinkReferences": {}
}