{
  "_format": "hh-sol-artifact-1",
  "contractName": "AgentMarketplace",
  "sourceName": "contracts/core/AgentMarketplace.sol",
  "abi": [
    {
      "inputs": [
        {
          "internalType": "address",
          "name": "_mindToken",
          "type": "address"
        },
        {
          "internalType": "address",
          "name": "_agentNFT",
          "type": "address"
        }
      ],
      "stateMutability": "nonpayable",
      "type": "constructor"
    },
    {
      "anonymous": false,
      "inputs": [
        {
          "indexed": true,
          "internalType": "uint256",
          "name": "agentId",
          "type": "uint256"
        },
        {
          "indexed": true,
          "internalType": "address",
          "name": "seller",
          "type": "address"
        }
      ],
      "name": "AgentDelisted",
      "type": "event"
    },
    {
      "anonymous": false,
      "inputs": [
        {
          "indexed": true,
          "internalType": "uint256",
          "name": "agentId",
          "type": "uint256"
        },
        {
          "indexed": true,
          "internalType": "address",
          "name": "seller",
          "type": "address"
        },
        {
          "indexed": false,
          "internalType": "uint256",
          "name": "price",
          "type": "uint256"
        }
      ],
      "name": "AgentListed",
      "type": "event"
    },
    {
      "anonymous": false,
      "inputs": [
        {
          "indexed": true,
          "internalType": "uint256",
          "name": "agentId",
          "type": "uint256"
        },
        {
          "indexed": true,
          "internalType": "address",
          "name": "seller",
          "type": "address"
        },
        {
          "indexed": true,
          "internalType": "address",
          "name": "buyer",
          "type": "address"
        },
        {
          "indexed": false,
          "internalType": "uint256",
          "name": "price",
          "type": "uint256"
        }
      ],
      "name": "AgentSold",
      "type": "event"
    },
    {
      "anonymous": false,
      "inputs": [
        {
          "indexed": true,
          "internalType": "address",
          "name": "previousOwner",
          "type": "address"
        },
        {
          "indexed": true,
          "internalType": "address",
          "name": "newOwner",
          "type": "address"
        }
      ],
      "name": "OwnershipTransferred",
      "type": "event"
    },
    {
      "anonymous": false,
      "inputs": [
        {
          "indexed": true,
          "internalType": "uint256",
          "name": "agentId",
          "type": "uint256"
        },
        {
          "indexed": false,
          "internalType": "uint256",
          "name": "oldPrice",
          "type": "uint256"
        },
        {
          "indexed": false,
          "internalType": "uint256",
          "name": "newPrice",
          "type": "uint256"
        }
      ],
      "name": "PriceUpdated",
      "type": "event"
    },
    {
      "anonymous": false,
      "inputs": [
        {
          "indexed": true,
          "internalType": "address",
          "name": "user",
          "type": "address"
        },
        {
          "indexed": false,
          "internalType": "uint256",
          "name": "amount",
          "type": "uint256"
        }
      ],
      "name": "TrialTokensClaimed",
      "type": "event"
    },
    {
      "inputs": [],
      "name": "BASIS_POINTS",
      "outputs": [
        {
          "internalType": "uint256",
          "name": "",
          "type": "uint256"
        }
      ],
      "stateMutability": "view",
      "type": "function"
    },
    {
      "inputs": [],
      "name": "MARKETPLACE_FEE",
      "outputs": [
        {
          "internalType": "uint256",
          "name": "",
          "type": "uint256"
        }
      ],
      "stateMutability": "view",
      "type": "function"
    },
    {
      "inputs": [],
      "name": "TRIAL_TOKEN_AMOUNT",
      "outputs": [
        {
          "internalType": "uint256",
          "name": "",
          "type": "uint256"
        }
      ],
      "stateMutability": "view",
      "type": "function"
    },
    {
      "inputs": [
        {
          "internalType": "uint256",
          "name": "",
          "type": "uint256"
        }
      ],
      "name": "activeListings",
      "outputs": [
        {
          "internalType": "uint256",
          "name": "",
          "type": "uint256"
        }
      ],
      "stateMutability": "view",
      "type": "function"
    },
    {
      "inputs": [
        {
          "internalType": "uint256",
          "name": "_amount",
          "type": "uint256"
        }
      ],
      "name": "addTrialTokenReserves",
      "outputs": [],
      "stateMutability": "nonpayable",
      "type": "function"
    },
    {
      "inputs": [],
      "name": "agentNFT",
      "outputs": [
        {
          "internalType": "contract BasicNFT",
          "name": "",
          "type": "address"
        }
      ],
      "stateMutability": "view",
      "type": "function"
    },
    {
      "inputs": [
        {
          "internalType": "uint256",
          "name": "_agentId",
          "type": "uint256"
        }
      ],
      "name": "buyAgent",
      "outputs": [],
      "stateMutability": "nonpayable",
      "type": "function"
    },
    {
      "inputs": [],
      "name": "claimTrialTokens",
      "outputs": [],
      "stateMutability": "nonpayable",
      "type": "function"
    },
    {
      "inputs": [
        {
          "internalType": "uint256",
          "name": "_agentId",
          "type": "uint256"
        }
      ],
      "name": "delistAgent",
      "outputs": [],
      "stateMutability": "nonpayable",
      "type": "function"
    },
    {
      "inputs": [
        {
          "internalType": "uint256",
          "name": "_agentId",
          "type": "uint256"
        }
      ],
      "name": "emergencyReturnAgent",
      "outputs": [],
      "stateMutability": "nonpayable",
      "type": "function"
    },
    {
      "inputs": [],
      "name": "getActiveListings",
      "outputs": [
        {
          "internalType": "uint256[]",
          "name": "",
          "type": "uint256[]"
        }
      ],
      "stateMutability": "view",
      "type": "function"
    },
    {
      "inputs": [
        {
          "internalType": "uint256",
          "name": "_agentId",
          "type": "uint256"
        }
      ],
      "name": "getAgentWithListing",
      "outputs": [
        {
          "internalType": "string",
          "name": "name",
          "type": "string"
        },
        {
          "internalType": "uint256",
          "name": "performanceScore",
          "type": "uint256"
        },
        {
          "internalType": "bool",
          "name": "isActive",
          "type": "bool"
        },
        {
          "internalType": "bool",
          "name": "isListed",
          "type": "bool"
        },
        {
          "internalType": "uint256",
          "name": "price",
          "type": "uint256"
        },
        {
          "internalType": "address",
          "name": "seller",
          "type": "address"
        }
      ],
      "stateMutability": "view",
      "type": "function"
    },
    {
      "inputs": [
        {
          "internalType": "uint256",
          "name": "_agentId",
          "type": "uint256"
        }
      ],
      "name": "getListing",
      "outputs": [
        {
          "components": [
            {
              "internalType": "uint256",
              "name": "agentId",
              "type": "uint256"
            },
            {
              "internalType": "address",
              "name": "seller",
              "type": "address"
            },
            {
              "internalType": "uint256",
              "name": "price",
              "type": "uint256"
            },
            {
              "internalType": "bool",
              "name": "active",
              "type": "bool"
            },
            {
              "internalType": "uint256",
              "name": "listedAt",
              "type": "uint256"
            }
          ],
          "internalType": "struct AgentMarketplace.AgentListing",
          "name": "",
          "type": "tuple"
        }
      ],
      "stateMutability": "view",
      "type": "function"
    },
    {
      "inputs": [
        {
          "internalType": "address",
          "name": "_seller",
          "type": "address"
        }
      ],
      "name": "getSellerListings",
      "outputs": [
        {
          "internalType": "uint256[]",
          "name": "",
          "type": "uint256[]"
        }
      ],
      "stateMutability": "view",
      "type": "function"
    },
    {
      "inputs": [
        {
          "internalType": "address",
          "name": "",
          "type": "address"
        }
      ],
      "name": "hasClaimedTrial",
      "outputs": [
        {
          "internalType": "bool",
          "name": "",
          "type": "bool"
        }
      ],
      "stateMutability": "view",
      "type": "function"
    },
    {
      "inputs": [
        {
          "internalType": "uint256",
          "name": "_agentId",
          "type": "uint256"
        },
        {
          "internalType": "uint256",
          "name": "_price",
          "type": "uint256"
        }
      ],
      "name": "listAgent",
      "outputs": [],
      "stateMutability": "nonpayable",
      "type": "function"
    },
    {
      "inputs": [
        {
          "internalType": "uint256",
          "name": "",
          "type": "uint256"
        }
      ],
      "name": "listings",
      "outputs": [
        {
          "internalType": "uint256",
          "name": "agentId",
          "type": "uint256"
        },
        {
          "internalType": "address",
          "name": "seller",
          "type": "address"
        },
        {
          "internalType": "uint256",
          "name": "price",
          "type": "uint256"
        },
        {
          "internalType": "bool",
          "name": "active",
          "type": "bool"
        },
        {
          "internalType": "uint256",
          "name": "listedAt",
          "type": "uint256"
        }
      ],
      "stateMutability": "view",
      "type": "function"
    },
    {
      "inputs": [],
      "name": "mindToken",
      "outputs": [
        {
          "internalType": "contract IERC20",
          "name": "",
          "type": "address"
        }
      ],
      "stateMutability": "view",
      "type": "function"
    },
    {
      "inputs": [],
      "name": "owner",
      "outputs": [
        {
          "internalType": "address",
          "name": "",
          "type": "address"
        }
      ],
      "stateMutability": "view",
      "type": "function"
    },
    {
      "inputs": [],
      "name": "renounceOwnership",
      "outputs": [],
      "stateMutability": "nonpayable",
      "type": "function"
    },
    {
      "inputs": [
        {
          "internalType": "address",
          "name": "",
          "type": "address"
        },
        {
          "internalType": "uint256",
          "name": "",
          "type": "uint256"
        }
      ],
      "name": "sellerListings",
      "outputs": [
        {
          "internalType": "uint256",
          "name": "",
          "type": "uint256"
        }
      ],
      "stateMutability": "view",
      "type": "function"
    },
    {
      "inputs": [],
      "name": "totalListingsCreated",
      "outputs": [
        {
          "internalType": "uint256",
          "name": "",
          "type": "uint256"
        }
      ],
      "stateMutability": "view",
      "type": "function"
    },
    {
      "inputs": [
        {
          "internalType": "address",
          "name": "newOwner",
          "type": "address"
        }
      ],
      "name": "transferOwnership",
      "outputs": [],
      "stateMutability": "nonpayable",
      "type": "function"
    },
    {
      "inputs": [
        {
          "internalType": "uint256",
          "name": "_agentId",
          "type": "uint256"
        },
        {
          "internalType": "uint256",
          "name": "_newPrice",
          "type": "uint256"
        }
      ],
      "name": "updatePrice",
      "outputs": [],
      "stateMutability": "nonpayable",
      "type": "function"
    },
    {
      "inputs": [],
      "name": "withdrawFees",
      "outputs": [],
      "stateMutability": "nonpayable",
      "type": "function"
    }
  ],
  "bytecode": "0x60806040523480156200001157600080fd5b5060405162001c0338038062001c038339810160408190526200003491620000e2565b6200003f3362000075565b60018055600280546001600160a01b039384166001600160a01b031991821617909155600380549290931691161790556200011a565b600080546001600160a01b038381166001600160a01b0319831681178455604051919092169283917f8be0079c531659141344cd1fd0a4f28419497f9722a3daafe3b4186f6b6457e09190a35050565b80516001600160a01b0381168114620000dd57600080fd5b919050565b60008060408385031215620000f657600080fd5b6200010183620000c5565b91506200011160208401620000c5565b90509250929050565b611ad9806200012a6000396000f3fe608060405234801561001057600080fd5b50600436106101735760003560e01c806387c35bc0116100de578063b6f45f1111610097578063e1f1c4a711610071578063e1f1c4a7146103de578063f2fde38b146103e7578063fa3ded90146103fa578063fad6a1e81461040d57600080fd5b8063b6f45f111461033c578063d01cc48b1461034f578063de74e57b1461036257600080fd5b806387c35bc0146102cf5780638da5cb5b146102d75780638efa4ecf146102e85780639c103c611461031b5780639e30614014610323578063b5b9847d1461032c57600080fd5b806347af74161161013057806347af7416146102665780635f42da091461027957806361cf486314610299578063715018a6146102ac5780637fdded8a146102b457806382367b2d146102bc57600080fd5b8063054564f01461017857806307e34e491461019e578063107a274a146101b35780633fd773e91461020e578063472a17cd14610239578063476343ee1461025e575b600080fd5b61018b6101863660046116aa565b610420565b6040519081526020015b60405180910390f35b6101b16101ac3660046116d6565b610451565b005b6101c66101c13660046116f8565b61074c565b6040516101959190815181526020808301516001600160a01b031690820152604080830151908201526060808301511515908201526080918201519181019190915260a00190565b600354610221906001600160a01b031681565b6040516001600160a01b039091168152602001610195565b61024c6102473660046116f8565b6107e6565b60405161019596959493929190611735565b6101b16108e1565b6101b16102743660046116f8565b610a79565b61028c610287366004611792565b610b75565b60405161019591906117b6565b61018b6102a73660046116f8565b610be1565b6101b1610c02565b6101b1610c16565b6101b16102ca3660046116d6565b610d9b565b61028c610ec4565b6000546001600160a01b0316610221565b61030b6102f6366004611792565b60046020526000908152604090205460ff1681565b6040519015158152602001610195565b61018b60c881565b61018b60085481565b61018b683635c9adc5dea0000081565b6101b161034a3660046116f8565b610f1c565b600254610221906001600160a01b031681565b6103ac6103703660046116f8565b6005602052600090815260409020805460018201546002830154600384015460049094015492936001600160a01b0390921692909160ff169085565b604080519586526001600160a01b0390941660208601529284019190915215156060830152608082015260a001610195565b61018b61271081565b6101b16103f5366004611792565b61105d565b6101b16104083660046116f8565b6110d3565b6101b161041b3660046116f8565b61140f565b6006602052816000526040600020818154811061043c57600080fd5b90600052602060002001600091509150505481565b6104596114da565b6003546040516331a9108f60e11b81526004810184905233916001600160a01b031690636352211e90602401602060405180830381865afa1580156104a2573d6000803e3d6000fd5b505050506040513d601f19601f820116820180604052508101906104c691906117fa565b6001600160a01b0316146105135760405162461bcd60e51b815260206004820152600f60248201526e2737ba1030b3b2b73a1037bbb732b960891b60448201526064015b60405180910390fd5b600081116105635760405162461bcd60e51b815260206004820152601c60248201527f5072696365206d7573742062652067726561746572207468616e203000000000604482015260640161050a565b60008281526005602052604090206003015460ff16156105bc5760405162461bcd60e51b81526020600482015260146024820152731059d95b9d08185b1c9958591e481b1a5cdd195960621b604482015260640161050a565b6003546040516323b872dd60e01b81526001600160a01b03909116906323b872dd906105f090339030908790600401611817565b600060405180830381600087803b15801561060a57600080fd5b505af115801561061e573d6000803e3d6000fd5b50506040805160a081018252858152336020808301828152838501888152600160608601818152426080880190815260008d81526005875289812098518955945188840180546001600160a01b0319166001600160a01b03909216919091179055925160028801555160038701805460ff19169115159190911790559051600490950194909455918252600681529281208054808401825590825292812090920186905560078054918201815582527fa66cc928b5edb82af9bd49922954155ab7b0942694bea4ce44661d9a8736c68801859055600880549350915061070383611851565b9091555050604051818152339083907f2c179e1e4a2440acecf6f47ee9d109186409daeeab22578623edc7bf37ddbbc19060200160405180910390a361074860018055565b5050565b6107896040518060a001604052806000815260200160006001600160a01b0316815260200160008152602001600015158152602001600081525090565b50600090815260056020908152604091829020825160a0810184528154815260018201546001600160a01b031692810192909252600281015492820192909252600382015460ff1615156060820152600490910154608082015290565b600354604051632de5aaf760e01b815260048101839052606091600091829182918291829182916001600160a01b031690632de5aaf790602401600060405180830381865afa15801561083d573d6000803e3d6000fd5b505050506040513d6000823e601f3d908101601f1916820160405261086591908101906118ef565b6000988952600560209081526040998a90208a5160a081018c528154815260018201546001600160a01b03168184018190526002830154828e01819052600384015460ff1615156060840181905260049094015460809093019290925284519385015194909c0151929c939b929a509098509650945092505050565b6108e9611533565b6002546040516370a0823160e01b81523060048201526000916001600160a01b0316906370a0823190602401602060405180830381865afa158015610932573d6000803e3d6000fd5b505050506040513d601f19601f8201168201806040525081019061095691906119c7565b90506000811161099e5760405162461bcd60e51b81526020600482015260136024820152724e6f206665657320746f20776974686472617760681b604482015260640161050a565b6002546001600160a01b031663a9059cbb6109c16000546001600160a01b031690565b6040516001600160e01b031960e084901b1681526001600160a01b039091166004820152602481018490526044016020604051808303816000875af1158015610a0e573d6000803e3d6000fd5b505050506040513d601f19601f82011682018060405250810190610a3291906119e0565b610a765760405162461bcd60e51b8152602060048201526015602482015274119959481dda5d1a191c985dd85b0819985a5b1959605a1b604482015260640161050a565b50565b610a81611533565b6000818152600560205260409020600381015460ff16610ab35760405162461bcd60e51b815260040161050a906119fb565b60035460018201546040516323b872dd60e01b81526001600160a01b03928316926323b872dd92610aee923092909116908790600401611817565b600060405180830381600087803b158015610b0857600080fd5b505af1158015610b1c573d6000803e3d6000fd5b50505060038201805460ff1916905550610b358261158d565b60018101546040516001600160a01b039091169083907fb0e83d43e83a64dcafdc683932cc419df21db0fb53f8229925356e7e1f4bf59d90600090a35050565b6001600160a01b038116600090815260066020908152604091829020805483518184028101840190945280845260609392830182828015610bd557602002820191906000526020600020905b815481526020019060010190808311610bc1575b50505050509050919050565b60078181548110610bf157600080fd5b600091825260209091200154905081565b610c0a611533565b610c146000611645565b565b3360009081526004602052604090205460ff1615610c765760405162461bcd60e51b815260206004820152601c60248201527f547269616c20746f6b656e7320616c726561647920636c61696d656400000000604482015260640161050a565b33600081815260046020819052604091829020805460ff19166001179055600254915163a9059cbb60e01b815290810192909252683635c9adc5dea0000060248301526001600160a01b03169063a9059cbb906044016020604051808303816000875af1158015610ceb573d6000803e3d6000fd5b505050506040513d601f19601f82011682018060405250810190610d0f91906119e0565b610d5b5760405162461bcd60e51b815260206004820152601b60248201527f547269616c20746f6b656e207472616e73666572206661696c65640000000000604482015260640161050a565b604051683635c9adc5dea00000815233907f1eff783e02fc191158af84c96c3c113f94f8eb97168d23d7e8593137b9d8b9569060200160405180910390a2565b6000828152600560205260409020600381015460ff16610dcd5760405162461bcd60e51b815260040161050a906119fb565b60018101546001600160a01b03163314610e295760405162461bcd60e51b815260206004820152601c60248201527f4f6e6c792073656c6c65722063616e2075706461746520707269636500000000604482015260640161050a565b60008211610e795760405162461bcd60e51b815260206004820152601c60248201527f5072696365206d7573742062652067726561746572207468616e203000000000604482015260640161050a565b60028101805490839055604080518281526020810185905285917f15819dd2fd9f6418b142e798d08a18d0bf06ea368f4480b7b0d3f75bd966bc48910160405180910390a250505050565b60606007805480602002602001604051908101604052809291908181526020018280548015610f1257602002820191906000526020600020905b815481526020019060010190808311610efe575b5050505050905090565b610f246114da565b6000818152600560205260409020600381015460ff16610f565760405162461bcd60e51b815260040161050a906119fb565b60018101546001600160a01b03163314610fab5760405162461bcd60e51b815260206004820152601660248201527513db9b1e481cd95b1b195c8818d85b8819195b1a5cdd60521b604482015260640161050a565b6003546040516323b872dd60e01b81526001600160a01b03909116906323b872dd90610fdf90309033908790600401611817565b600060405180830381600087803b158015610ff957600080fd5b505af115801561100d573d6000803e3d6000fd5b50505060038201805460ff19169055506110268261158d565b604051339083907fb0e83d43e83a64dcafdc683932cc419df21db0fb53f8229925356e7e1f4bf59d90600090a350610a7660018055565b611065611533565b6001600160a01b0381166110ca5760405162461bcd60e51b815260206004820152602660248201527f4f776e61626c653a206e6577206f776e657220697320746865207a65726f206160448201526564647265737360d01b606482015260840161050a565b610a7681611645565b6110db6114da565b6000818152600560205260409020600381015460ff166111325760405162461bcd60e51b81526020600482015260126024820152714167656e74206e6f7420666f722073616c6560701b604482015260640161050a565b60018101546001600160a01b0316330361118e5760405162461bcd60e51b815260206004820152601960248201527f43616e6e6f742062757920796f7572206f776e206167656e7400000000000000604482015260640161050a565b600281015460018201546001600160a01b031660006127106111b160c885611a25565b6111bb9190611a42565b905060006111c98285611a64565b6002546040516323b872dd60e01b81529192506001600160a01b0316906323b872dd906111fe90339030908990600401611817565b6020604051808303816000875af115801561121d573d6000803e3d6000fd5b505050506040513d601f19601f8201168201806040525081019061124191906119e0565b61127e5760405162461bcd60e51b815260206004820152600e60248201526d14185e5b595b9d0819985a5b195960921b604482015260640161050a565b60025460405163a9059cbb60e01b81526001600160a01b038581166004830152602482018490529091169063a9059cbb906044016020604051808303816000875af11580156112d1573d6000803e3d6000fd5b505050506040513d601f19601f820116820180604052508101906112f591906119e0565b6113395760405162461bcd60e51b815260206004820152601560248201527414d95b1b195c881c185e5b595b9d0819985a5b1959605a1b604482015260640161050a565b6003546040516323b872dd60e01b81526001600160a01b03909116906323b872dd9061136d90309033908b90600401611817565b600060405180830381600087803b15801561138757600080fd5b505af115801561139b573d6000803e3d6000fd5b50505060038601805460ff19169055506113b48661158d565b336001600160a01b0316836001600160a01b0316877e393c6bc7f23a9841d3f65f74d413e4018c558392648d8b4a35a23335981530876040516113f991815260200190565b60405180910390a45050505050610a7660018055565b611417611533565b6002546040516323b872dd60e01b81526001600160a01b03909116906323b872dd9061144b90339030908690600401611817565b6020604051808303816000875af115801561146a573d6000803e3d6000fd5b505050506040513d601f19601f8201168201806040525081019061148e91906119e0565b610a765760405162461bcd60e51b815260206004820152601760248201527f52657365727665207472616e73666572206661696c6564000000000000000000604482015260640161050a565b60026001540361152c5760405162461bcd60e51b815260206004820152601f60248201527f5265656e7472616e637947756172643a207265656e7472616e742063616c6c00604482015260640161050a565b6002600155565b6000546001600160a01b03163314610c145760405162461bcd60e51b815260206004820181905260248201527f4f776e61626c653a2063616c6c6572206973206e6f7420746865206f776e6572604482015260640161050a565b60005b6007548110156107485781600782815481106115ae576115ae611a77565b90600052602060002001540361163357600780546115ce90600190611a64565b815481106115de576115de611a77565b9060005260206000200154600782815481106115fc576115fc611a77565b600091825260209091200155600780548061161957611619611a8d565b600190038181906000526020600020016000905590555050565b8061163d81611851565b915050611590565b600080546001600160a01b038381166001600160a01b0319831681178455604051919092169283917f8be0079c531659141344cd1fd0a4f28419497f9722a3daafe3b4186f6b6457e09190a35050565b6001600160a01b0381168114610a7657600080fd5b600080604083850312156116bd57600080fd5b82356116c881611695565b946020939093013593505050565b600080604083850312156116e957600080fd5b50508035926020909101359150565b60006020828403121561170a57600080fd5b5035919050565b60005b8381101561172c578181015183820152602001611714565b50506000910152565b60c08152600087518060c08401526117548160e0850160208c01611711565b6020830197909752509315156040850152911515606084015260808301526001600160a01b031660a082015260e0601f909201601f19160101919050565b6000602082840312156117a457600080fd5b81356117af81611695565b9392505050565b6020808252825182820181905260009190848201906040850190845b818110156117ee578351835292840192918401916001016117d2565b50909695505050505050565b60006020828403121561180c57600080fd5b81516117af81611695565b6001600160a01b039384168152919092166020820152604081019190915260600190565b634e487b7160e01b600052601160045260246000fd5b6000600182016118635761186361183b565b5060010190565b634e487b7160e01b600052604160045260246000fd5b6040516060810167ffffffffffffffff811182821017156118a3576118a361186a565b60405290565b604051601f8201601f1916810167ffffffffffffffff811182821017156118d2576118d261186a565b604052919050565b805180151581146118ea57600080fd5b919050565b6000602080838503121561190257600080fd5b825167ffffffffffffffff8082111561191a57600080fd5b908401906060828703121561192e57600080fd5b611936611880565b82518281111561194557600080fd5b8301601f8101881361195657600080fd5b8051838111156119685761196861186a565b61197a601f8201601f191687016118a9565b9350808452888682840101111561199057600080fd5b61199f81878601888501611711565b505081815283830151848201526119b8604084016118da565b60408201529695505050505050565b6000602082840312156119d957600080fd5b5051919050565b6000602082840312156119f257600080fd5b6117af826118da565b60208082526010908201526f1059d95b9d081b9bdd081b1a5cdd195960821b604082015260600190565b8082028115828204841417611a3c57611a3c61183b565b92915050565b600082611a5f57634e487b7160e01b600052601260045260246000fd5b500490565b81810381811115611a3c57611a3c61183b565b634e487b7160e01b600052603260045260246000fd5b634e487b7160e01b600052603160045260246000fdfea2646970667358221220d4623101fb48c7eb7d4d6697fafd41c5206ef69b8fe0522ce8db9fdd65a5de9564736f6c63430008130033",
  "linkReferences": {},
  "deployedLinkReferences": {}
}